:020000040800F2
:10000000F8F300205D020008678A0008096F000805
:10001000718600086F2300080BD70008000000005D
:100020000000000000000000000000009D0100082A
:100030007D37000800000000F9010008B1CA00087F
:1000400077020008770200087702000877020008AC
:10005000770200087702000877020008770200089C
:1000600077020008A9380008B338000877020008B2
:10007000DD330008770200087702000877020008E5
:10008000770200087702000877020008770200086C
:10009000752300087702000877020008BD380008C1
:1000A000770200087702000877020008770200084C
:1000B00077020008ADCB000877020008770200083D
:1000C000770200087702000877020008770200082C
:1000D00077020008ADD4000877020008D5D50008E3
:1000E000770200087702000877020008770200080C
:1000F00077020008770200087702000877020008FC
:1001000077020008770200087702000877020008EB
:100110007702000877020008BDCB000877020008CC
:1001200077020008ED330008770200087702000824
:1001300077020008770200087702000877020008BB
:10014000852300087702000877020008770200087C
:10015000FD3300080D3400081D340008E9D50008FF
:10016000770200087702000877020008770200088B
:1001700077020008770200087702000800000000FC
:100180007702000877020008DFF80CD000F02CFBA3
:100190000048004785E20008F8F300202C4B19685E
:1001A0000868B0E8F04F80F30988BFF36F8F4FF015
:1001B000000080F3118870470000000008480068C4
:1001C000006880F308884FF0000080F3148862B65E
:1001D00061B6BFF34F8FBFF36F8F00DF00BF00BF6B
:1001E00008ED00E0DFF80C00016841F470010160E7
:1001F000704700BF88ED00E0EFF30980BFF36F8F19
:10020000134B1A681EF0100F08BF20ED108A20E96A
:10021000F04F106009B44FF0500080F31188BFF325
:100220004F8FBFF36F8F0FF03DFF4FF0000080F353
:10023000118809BC19680868B0E8F04F1EF0100F6B
:1002400008BFB0EC108A80F30988BFF36F8F704746
:1002500040000020EFF3058070470000064880470B
:1002600006480047FEE7FEE7FEE7FEE7FEE7FEE79B
:10027000FEE7FEE7FEE7FEE799CB000889010008EC
:100280002DE9F05F0546002092469B4688460646CB
:10029000814640241BE0284641464746224600F05E
:1002A000ECF953465A46C01A914110D311461846EC
:1002B000224600F0D3F92D1A67EB01084F4622467B
:1002C0000120002100F0CAF917EB00094E41201E61
:1002D000A4F10104DFDC484631462A464346BDE826
:1002E000F09F40EA01039B0703D009E008C9121FF1
:1002F00008C0042AFAD203E011F8013B00F8013BE0
:10030000521EF9D27047D2B201E000F8012B491E0B
:10031000FBD270470022F6E710B513460A460446A2
:100320001946FFF7F0FF204610BD421C10F8011BD4
:100330000029FBD1801A70472DE9FE4F804681EAE3
:100340000300C00F0C46009021F0004123F000454F
:10035000B8EB0200A94105D24046214690461C4612
:100360000B46024623F00040104347D0270DC7F349
:100370000A00C3F30A510290401A019040286BDA38
:10038000C3F3130040F4801B0098924620B1002371
:10039000D2EB030A63EB0B0B01985946C0F1400204
:1003A000504600F05BF906460D4650465946019A04
:1003B00000F073F910EB08006141002487EA115244
:1003C00084EAE7731A4340D0009A62B3019A012A83
:1003D0004FEA075215DC001B61EB02014FF00042AF
:1003E00002EA0752CDE90042001C41F58011324675
:1003F0002B4600F0AAF903B0BDE8F08F4046214635
:10040000F9E7001B61EB0201001C41F580130018A5
:100410005B412018A2F5001747EB030140EAD570B5
:10042000B6196D4111E06D084FEA360645EAC07510
:100430004FEA0752001B61EB0201001C41F58011DD
:1004400049084FEA30000019514132462B4603B0AB
:10045000BDE8F04F00F06AB9009801224000002387
:10046000D0EB020263EBE073009821464FEAE074A0
:10047000B8EB000061EB0401E9E783F000435BE7C0
:1004800081F0004158E72DE9FE4F81EA030404F0B2
:10049000004421F0004100944FF0000B23F0004392
:1004A00050EA01045ED052EA03045BD0C3F30A545D
:1004B000C1F30A552C44A4F2F3340194A0FB025476
:1004C000C1F3130141F48011C3F3130343F4801308
:1004D00001FB024400FB034E840A970A44EA81545C
:1004E00047EA8357A4FB076802958D0A05FB078539
:1004F0004FEA932C04FB0C542705029D4FEA065843
:1005000047EA1637B5EB08056EEB070C870E920E1F
:1005100047EA811742EA8312A7FB0201B6EB0B01FF
:1005200064EB00042B0D43EA0C335E1844EB1C50C3
:10053000DA465146E7FB0201C5F313044FEA0B33D9
:1005400043EA14534FEA0432019C43EA0603A4F140
:100550000C040294009CCDE900B400F0F6F803B05E
:10056000BDE8F08F00200146F9E7C1F30A5210B54B
:10057000C1F3130140F2FF3341F480119A4201DAD2
:10058000002010BD40F233439A42A2F2334203DC12
:10059000524200F072F810BD904010BD00F00042D1
:1005A00030F000400AD0C10D01F56071C0F31600B3
:1005B00042EA0151C208400711437047002001463A
:1005C0007047000030B5041E71F1000404DB4FF0E9
:1005D0000044404264EB0101141E73F1000405DB8A
:1005E0001C464FF00043524263EB04038B4208BFAA
:1005F000824230BD30B5041E71F1000404DB4FF0BF
:100600000044404264EB0101141E73F1000405DB59
:100610001C464FF00043524263EB0403994208BF6B
:10062000904230BD01F0004330B421F0004150EA67
:10063000010206D00A0DA2F56072C1F31301002A6F
:1006400002DC30BC00207047440F44EAC104C10002
:10065000E01830BC00EBC25000F031B8202A04DBB7
:10066000203A00FA02F1002070479140C2F12003C5
:1006700020FA03F3194390407047202A04DB203A04
:1006800021FA02F00021704721FA02F3D040C2F1B2
:1006900020029140084319467047202A06DBCB17F9
:1006A000203A41FA02F043EAE07306E041FA02F32D
:1006B000D040C2F1200291400843194670470029FA
:1006C000A8BF7047401C490008BF20F001007047D8
:1006D00010B4B0FA80FC00FA0CF050EA010404BF38
:1006E00010BC704749B1CCF1200421FA04F411FA8E
:1006F0000CF118BF012121430843A3EB0C01CB1DD2
:100700004FEA00614FEA102042BF002010BC704742
:1007100000EBC35010440029A4BF10BC7047401C1C
:10072000490008BF20F0010010BC704710B5141E2E
:1007300073F1000408DA401C41F1000192185B419A
:100740001A4301D120F0010010BD2DE9F04D924671
:100750009B4611B1B1FA81F202E0B0FA80F2203288
:100760009046FFF77BFF04460F4640EA0A0041EA45
:100770000B0153465A46084313D0114653EA010071
:1007800019D0C8F140025046FFF777FF05460E46E4
:10079000504659464246FFF761FF084305D0012005
:1007A00004E020463946BDE8F08D0020054346EAC6
:1007B000E0762C4337430A986305E40AA0EB08006F
:1007C0000022FD0A44EA47540A3002D500200146BF
:1007D000E9E7010510196941DDE90845001969419A
:1007E000BDE8F04DA2E70000064C074D06E0E068CA
:1007F00040F0010394E8070098471034AC42F6D368
:10080000FFF7C6FCCC240108EC24010870B58C1855
:1008100010F8015B15F0070301D110F8013B2A1114
:1008200006D110F8012B03E010F8016B01F8016B01
:100830005B1EF9D12B0705D40023521E0DD401F8FD
:10084000013BFAE710F8013BCB1A921C03E013F8C6
:10085000015B01F8015B521EF9D5A142D8D30020FB
:1008600070BD00009FED241AB5EE002A41F6C84382
:100870000021B7EE004AC0F6010320EE010A30EE77
:10088000020ABDEEC01AB5EEC00A11EE100AF1EE72
:1008900010FA9FED1A1AB8BF013802EE100AB8EE2E
:1008A000C22A30EE420A9FED162A20EE010ABDEE62
:1008B000C01A11EE100A30EE021A0246B1EB502FA8
:1008C00018BF002202EE102A03EB8203B1EB502F77
:1008D00018BFB0EE410AB8EE421A93ED002A93ED2C
:1008E000013A30EE410A34EE401A20EE030A21EEBE
:1008F000021A31EE000A704783F9223E00000044DC
:10090000000000C480B5B0F800E00B889E4555D1CA
:10091000B0F802C04B889C4550D113889E454DD1FC
:1009200053889C454AD15268496840680CFB0EFCCC
:100930000023B3EB9C0F2BD04FEA9C035B4200BF1C
:1009400091ED000A90ED001A013331EE000A82EDBC
:10095000000A91ED010A90ED011A31EE000A82EDD4
:10096000010A91ED020A90ED021A31EE000A82EDC1
:10097000020A91ED030A90ED031A01F1100100F152
:10098000100031EE000A82ED030A02F11002D7D105
:100990001CF0030310D05B4291ED000A90ED001AA9
:1009A000013301F1040100F1040031EE000A82ED8F
:1009B000000A02F10402EFD1002000E0FD2040B265
:1009C00080BD436042800180704700002DE9F04FF8
:1009D0008BB0B0F802E0B0F800B0F34540F05281BF
:1009E0000B88FD229B4540F04E814F88BB4240F072
:1009F0004A814768BBF1000F00F02C814C686FF012
:100A00000300009700274FF07E595E46CDF81CE0AA
:100A100000EB8B0820460694BBEB060008D0B9001B
:100A20002046FFF777FC0020013004348742FBD1D9
:100A300004F1040A751EC4F800900FD0A8EB8701DA
:100A40005046FFF767FC0120544600BF01300434D4
:100A50008642FBD10137002D2E46DDD1009FDDF807
:100A60001CE0BBF1000F00F0F580042039469FED3B
:100A70008A0A07EB8E0C3B1D4FEA8E05ABF1010491
:100A80007746CDF814B000EB8E0089460190CEF188
:100A900000000890002000BF584580F0F880069ABA
:100AA00000FB0EF16646B0EE403A02EB810209EB24
:100AB000810191ED001A099121460A92B0EE414A56
:100AC00007E000BF96ED004A72190139B0EE423AD4
:100AD0001646B5EEC04AF1EE10FA09DDB4EEC34A8F
:100AE000B0EE442AF1EE10FAD8BFB0EE432A08E087
:100AF000B1EE442AB4EEC23AF1EE10FA01DBB0EEE8
:100B0000432A0029DED1B5EE402AF1EE10FA00F0BA
:100B1000BE80B0EEC13AB4EE423AF1EE10FA1CBF1C
:100B2000C14311EB0B0104D0002100BF01318C4205
:100B3000FCD1B5EE401AF1EE10FA00F0A880CDE934
:100B4000034CAEEB000C4FF07E51099ABCF1010F43
:100B500011600AD001211A4692ED002A01318F421C
:100B600082EE012AA2EC012AF6D108990A9A00BF66
:100B700092ED002A013182EE012A82ED002A02F173
:100B80000402F5D10599DDF818A0ACF1010B4FF086
:100B900000084E46CDF80890804505D10AEB8E0A34
:100BA00006EB8C0638E000BF099A96ED001ABBF1FF
:100BB000000F92ED002A21EE022A31EE422AA6EC25
:100BC000012A16D00122002403EB040906EB040ECF
:100BD0000132043499ED002A9EED003A974221EE4D
:100BE000022A33EE422A8EED002AEDD1DDF81CE018
:100BF0002644089A0A9C00BF94ED002A9AED003A18
:100C0000013204F1040421EE022A33EE422A8AED75
:100C1000002A0AF1040AEFD106EB800608F1010868
:100C20000139B9D1039CDDF808900199DDF810C0B5
:100C3000DDF814B00130013F0B448C44A4F10104F1
:100C400009F104097FF428AFB5EE401A009FF1EED8
:100C500010FA1ED10EFB0BF10020002259B100BF8B
:100C600097ED000AB5EE400AF1EE10FA03D1013219
:100C700004378A42F4D38A4208BF6FF004000BB0F5
:100C8000BDE8F08FFD2250B20BB0BDE8F08FFB2223
:100C9000F9E70022F7E700BF000000002DE9F04F60
:100CA00089B046880B889E4240F08E800588138864
:100CB0009D4240F08980B1F802E053889E4540F0A3
:100CC00083800023446852684968B7089FED410A51
:100CD000A3EB9600089026F00300029206F00302B0
:100CE000019104EB800B07FB0EF001EB00104FEAC3
:100CF0008E01009050420790CDE903E602980695D8
:100D00000593DDE900AC00EB830800BF002FB0EED7
:100D1000401AE14620462FD0089D63462046B0EE9B
:100D2000401A00BF5E1893ED002A90ED003A90ED56
:100D3000014A90ED025A90ED036A1030013596EDAC
:100D4000007A06EB010323EE022A93ED003A0B44EE
:100D500031EE021A93ED002A24EE074A0B4431EEDD
:100D6000041A25EE033A31EE031A26EE022A31EE7A
:100D7000021AD7D1D14658466AB1079D99ED002A8B
:100D800090ED003A8944013500F1040023EE022A77
:100D900031EE021AF2D188ED001A0AF1040A0CF1C0
:100DA000040CBEF1010E08F10408AFD1049E069DAB
:100DB000DDF80CE0059B0BEB860B04EB860473441B
:100DC000013D9BD1002000E0FD2040B209B0BDE80C
:100DD000F08F00BF0000000080B5B0F800E00B8885
:100DE0009E4555D1B0F802C04B889C4550D1138820
:100DF0009E454DD153889C454AD152684968406808
:100E00000CFB0EFC0023B3EB9C0F2BD04FEA9C0392
:100E10005B4200BF91ED000A90ED001A013331EE04
:100E2000400A82ED000A91ED010A90ED011A31EEBF
:100E3000400A82ED010A91ED020A90ED021A31EEAC
:100E4000400A82ED020A91ED030A90ED031A01F1C6
:100E5000100100F1100031EE400A82ED030A02F1A8
:100E60001002D7D11CF0030310D05B4291ED000AB1
:100E700090ED001A013301F1040100F1040031EE9C
:100E8000400A82ED000A02F10402EFD1002000E0E6
:100E9000FD2040B280BD00002DE9F04F82B0B0F8D7
:100EA00000E04B889E454BD144880B889C4247D13B
:100EB00000234E6804F0030B40684FEA0E184FEA17
:100EC000940AA3EB9401CBF1000901914FEA8E0142
:100ED00032460096BAF1000F1CD0019F344600BF85
:100EE0002546046801372C6044686C5005EB01040A
:100EF000D0F808C044F801C00C44C26800F11000EA
:100F0000625004EB010202EB0104E9D105EB080792
:100F100003E000BF009A02EB8307BBF1000F07D08C
:100F20004D4600BF50F8042B01353A600F44F9D10B
:100F30000436BEF1010E03F10103CBD1002000E025
:100F4000FD2040B202B0BDE8F08F00009FED221AF4
:100F500041F6C8430021B7EE004AC0F6010320EE77
:100F6000010ABDEEC01AB5EEC00A11EE100AF1EE8C
:100F700010FA9FED1A1AB8BF013802EE100AB8EE47
:100F8000C22A30EE420A9FED162A20EE010ABDEE7B
:100F9000C01A11EE100A30EE021A0246B1EB502FC1
:100FA00018BF002202EE102A03EB8203B1EB502F90
:100FB00018BFB0EE410AB8EE421A93ED002A93ED45
:100FC000013A30EE410A34EE401A20EE030A21EED7
:100FD000021A31EE000A704783F9223E00000044F5
:100FE000000000C438B50020009000246C48006860
:100FF00002F051FD80216B4800680BF0A6FC5521E2
:10100000684800680BF0A1FC5521664800680BF0A9
:101010009CFC00906248006802F04CFD022003F046
:10102000ABFF5F48006802F036FD80215D48006834
:101030000BF08BFC55215B4800680BF086FC5521BA
:10104000584800680BF081FC00905548006802F099
:1010500031FD022003F090FF5148006802F01BFDB3
:101060007E21504800680BF070FCB6214D480068A6
:101070000BF06BFC4A48006802F01CFD502003F0A6
:101080007BFF4748006802F006FD80214548006864
:101090000BF05BFC5521434800680BF056FC5521D2
:1010A000404800680BF051FC00903D48006802F099
:1010B00001FD022003F060FF3948006802F0EBFCFC
:1010C0008021384800680BF040FC55213548006805
:1010D0000BF03BFC5521334800680BF036FC0090C8
:1010E0002F48006802F0E6FC022003F045FF9DF85F
:1010F00000001E2801D0FF2038BD00244CE0284805
:10110000006802F0C8FC04EB4400274A115C254843
:1011100000680BF01AFC04EB4400234A10444178A9
:10112000204800680BF011FC1D48006802F0C2FC6A
:10113000022003F021FF1A48006802F0ACFC04EB27
:101140004400194A105C40F08001164800680BF01A
:10115000FCFB5521134800680BF0F7FB55211148A3
:1011600000680BF0F2FB00900D48006802F0A2FC52
:10117000022003F001FF04EB44000B4908444078CF
:101180009DF80010884205D004EB4400064908444D
:101190008078B1E7601CC4B2062CB0DB0020ABE75E
:1011A000B0030020D8020020AC02002030B585B08A
:1011B00000250020009001900024FE48006802F005
:1011C0006AFC8021FC4800680BF0BFFB5521FA48FF
:1011D00000680BF0BAFB5521F74800680BF0B5FB2F
:1011E0000546F448006802F065FC022003F0C4FEE6
:1011F000F048006802F04FFC8021EF4800680BF0D7
:10120000A4FB5521EC4800680BF09FFB5521EA48F0
:1012100000680BF09AFB0546E648006802F04AFCBD
:10122000022003F0A9FEE348006802F034FC7E21AE
:10123000E14800680BF089FBB621DF4800680BF03D
:1012400084FBDC48006802F035FC502003F094FE7B
:10125000D848006802F01FFC8021D74800680BF0D6
:1012600074FB5521D44800680BF06FFB5521D24820
:1012700000680BF06AFB0546CE48006802F01AFCD5
:10128000022003F079FECB48006802F004FC8021C4
:10129000C94800680BF059FB5521C74800680BF09E
:1012A00054FB5521C44800680BF04FFB0546C1486C
:1012B000006802F0FFFB022003F05EFE1E2D02D04C
:1012C000FF2005B030BD00244CE0BA48006802F0B1
:1012D000E2FB04EB4400B94A115CB74800680BF02C
:1012E00034FB04EB4400B54A10444178B24800682E
:1012F0000BF02BFBAF48006802F0DCFB022003F090
:101300003BFEAC48006802F0C6FB04EB4400AB4A6D
:10131000105C40F08001A84800680BF016FB5521D6
:10132000A54800680BF011FB5521A34800680BF09D
:101330000CFB05469F48006802F0BCFB022003F04E
:101340001BFE04EB44009D4908444078A84204D0A9
:1013500004EB440008448078B3E7502003F00CFE0F
:10136000601CC4B2042CB0DB00248DE091480068FE
:1013700002F091FB201D00EB4000904A115C8E486A
:1013800000680BF0E2FA201D00EB40008B4A10448D
:101390004178894800680BF0D8FA8648006802F066
:1013A00089FB022003F0E8FD8248006802F073FB2D
:1013B000201D00EB4000814A105C40F080017E4817
:1013C00000680BF0C2FA55217B4800680BF0BDFAAB
:1013D0005521794800680BF0B8FA05467548006851
:1013E00002F068FB022003F0C7FD201D00EB400067
:1013F000724908444078A84205D0201D00EB400007
:10140000084480785DE7502003F0B6FD6948006825
:1014100002F041FB9221684800680BF096FA922195
:10142000654800680BF091FA062269466248006838
:101430000BF07BFA5F48006802F03CFB9DF801006E
:10144000000200B29DF80010084304EB440102AA18
:1014500022F811009DF80300000200B29DF802106E
:10146000084304EB440102EB410148809DF805006C
:10147000000200B29DF80410084304EB440102EBA3
:1014800041018880601CC4B2022CFFF66FAF49484E
:10149000006802F000FB6D21474800680BF055FA28
:1014A0000021454800680BF050FA4248006802F0FD
:1014B00001FB022003F060FD3E48006802F0EBFAF9
:1014C000ED213D4800680BF040FA55213A4800688C
:1014D0000BF03BFA5521384800680BF036FA054608
:1014E0003448006802F0E6FA022003F045FD0DB131
:1014F0000420E6E62F48006802F0CDFA7E212E484F
:1015000000680BF022FAB6212B4800680BF01DFA98
:101510002848006802F0CEFA502003F02DFDBDF9F6
:101520000800BDF90E10401A40F25551884210DBF8
:10153000BDF90A10BDF91000081A40F25551884251
:1015400007DBBDF90C10BDF91200081AB0F52A7FAF
:1015500001DA8020B5E61748006802F09CFA802185
:10156000154800680BF0F1F95521134800680BF09D
:10157000ECF95521104800680BF0E7F905460D48D5
:10158000006802F097FA022003F0F6FC09480068B0
:1015900002F081FA8021084800680BF0D6F9552145
:1015A000054800680BF0D1F95521034800680BF09D
:1015B000CCF905E0B0030020D8020020C8100108D3
:1015C00005460448006802F075FA022003F0D4FCD6
:1015D000002076E6B00300207CB500F0A7FA0446B0
:1015E0000020009001900420207003F0F1FD20669F
:1015F0008D48006802F04FFA92218C4800680BF089
:10160000A4F99221894800680BF09FF906226946E7
:10161000864800680BF089F98348006802F04AFAAE
:101620009DF80100000200B29DF80010084300EE92
:10163000100AB8EEC00A7E48D0ED000A20EE200A5B
:10164000D4ED140A20EE200A84ED010A9DF803006F
:10165000000200B29DF80210084300EE100AB8EE36
:10166000C00A7348D0ED000A20EE200AD4ED140A17
:1016700020EE200A84ED020A9DF80500000200B267
:101680009DF80410084300EE100AB8EEC00A68483E
:10169000D0ED000A20EE200AD4ED140A20EE200A34
:1016A00084ED030A6348006802F0F5F980215F4881
:1016B00000680BF04AF9082269465C4800680BF0A4
:1016C00034F95C48006802F0F5F99DF800000F2835
:1016D00076D194F85C00E0B39DF80300000200B2FC
:1016E0009DF80210084300EE100AF8EEC00A94EDCF
:1016F0000D0A514890ED001A10EE810A84ED050A9A
:101700009DF80500000200B29DF80410084300EEA9
:10171000100AF8EEC00A94ED0E0A474890ED001A40
:1017200010EE810A84ED060A9DF80700000200B25F
:101730009DF80610084300EE100AF8EEC00A94ED7A
:101740000F0A3D4890ED001A10EE810A84ED040A5C
:1017500036E0FFE79DF80300000200B29DF802109A
:10176000084300EE100AB8EEC00A3348D0ED000A74
:1017700020EE200A84ED050A9DF80500000200B263
:101780009DF80410084300EE100AB8EEC00A2A487B
:10179000D0ED000A20EE200A84ED060A9DF807002D
:1017A000000200B29DF80610084300EE100AB8EEE1
:1017B000C00A2148D0ED000A20EE200A84ED040A78
:1017C0001948006802F067F9A221184800680BF078
:1017D000BCF8A221154800680BF0B7F80222694650
:1017E000124800680BF0A1F80F48006802F062F997
:1017F0009DF80000C0009DF8011040EA6115B5F5A4
:10180000806F02DBA5F5006005B200EE105AF8EE1D
:10181000C00AB4EE001AB3EE070A00EE810A84EDA6
:10182000160A012020707CBDB0030020D8020020E1
:10183000D0020020B4030020D402002070B50024A0
:1018400000255E48006802F026F980215C480068A7
:101850000BF07BF855215A4800680BF076F80546E6
:101860005648006802F026F9022003F085FB534831
:10187000006802F010F98021514800680BF065F80B
:1018800055214F4800680BF060F805464B4800684A
:1018900002F010F9022003F06FFB4848006802F0E4
:1018A000FAF81421464800680BF04FF8B621444876
:1018B00000680BF04AF84148006802F0FBF850203D
:1018C00003F05AFB3D48006802F0E5F880213C48EF
:1018D00000680BF03AF85521394800680BF035F8EC
:1018E00005463648006802F0E5F8022003F044FBA4
:1018F0003248006802F0CFF88021314800680BF0D0
:1019000024F855212E4800680BF01FF805462B4897
:10191000006802F0CFF8022003F02EFB0F2D01D05B
:10192000FF2070BD002444E02448006802F0B3F8B2
:1019300004EB4400234A115C214800680BF005F8D1
:1019400004EB44001F4A104441781D4800680AF027
:10195000FCFF1A48006802F0ADF8022003F00CFB0F
:101960001648006802F097F804EB4400154A105C32
:1019700040F08001124800680AF0E7FF5521104846
:1019800000680AF0E2FF05460C48006802F092F891
:10199000022003F0F1FA04EB44000A4908444078BD
:1019A000A84204D004EB440008448078B9E7601CE6
:1019B000C4B2062CB8DB0020B3E70000B40300205B
:1019C000D8020020BE02002070B500250024554832
:1019D000006802F060F88021534800680AF0B5FF03
:1019E0005521514800680AF0B0FF05464D4800688F
:1019F00002F060F8022003F0BFFA4A48006802F0E3
:101A00004AF88021484800680AF09FFF552146485F
:101A100000680AF09AFF05464248006802F04AF85A
:101A2000022003F0A9FA3F48006802F034F81421BC
:101A30003D4800680AF089FFB6213B4800680AF07B
:101A400084FF3848006802F035F8502003F094FA1B
:101A50003448006802F01FF88021334800680AF01B
:101A600074FF5521304800680AF06FFF05462D4885
:101A7000006802F01FF8022003F07EFA294800688F
:101A800002F009F88021284800680AF05EFF55211D
:101A9000254800680AF059FF05462248006802F010
:101AA00009F8022003F068FA1E48006801F0F3FF0D
:101AB0003C211D4800680AF048FF01211A480068CF
:101AC0000AF043FF1748006801F0F4FF502003F0CC
:101AD00053FA00BF1348006801F0DDFFBC21124833
:101AE00000680AF032FF55210F4800680AF02DFF08
:101AF00005460C48006801F0DDFF022003F03CFAC7
:101B0000601CC4B205F0020008B90A2CE2DB0A2C02
:101B100001D1402070BD05F0040008B14020F9E774
:101B20000020F7E7B4030020D802002000487047E7
:101B30004489002030B589B0FFF7F8FF044600253E
:101B40000EE005A951F8250069460DF0EEFE684645
:101B50000CF096F901A800EB850080ED000A6D1CE1
:101B6000042DEEDB9DED010ADFED300AB4EEE00A54
:101B7000F1EE10FA23DC9DED020ADFED2C0AB4EE43
:101B8000E00AF1EE10FA1ADC9DED030ADFED270AF8
:101B9000B4EEE00AF1EE10FA11DC9DED040AF2EE6B
:101BA000060AB4EEE00AF1EE10FA08DC9DED040A34
:101BB000F2EE030AB4EEE00AF1EE10FA18D29FED4D
:101BC0001C0A84ED0D0A9FED1B0A84ED0E0A9FEDA1
:101BD000190A84ED0F0A9FED180A84ED130A94ED9B
:101BE000130ADFED160A80EE801A84ED141A1BE04A
:101BF00000200BE001A901EB800191ED000A04F146
:101C0000340101EB800181ED000A401C0328F1DB67
:101C10009DED040A84ED130A94ED130ADFED070A23
:101C200080EE801A84ED141A09B030BD8FC2753C65
:101C3000AC38223BB016CE393F161B41C3F51C41D0
:101C400070B50446FFF772FF054600F037F8FFF75E
:101C5000ADFA08B1802001E0FFF7C4F90C49087023
:101C6000FFF7B2FE08B1402001E0FFF7E7FD0849A9
:101C700008700CB100F04CF8FFF75CFF04480078E6
:101C800008B1022000E0012028700148007870BDF2
:101C90002403002070B5FFF749FF044603F098FACB
:101CA0000546206E281AC82801D902202070207805
:101CB000012800D170BD0020FCE7000010B5FFF73F
:101CC00035FF04469FED110A84ED010A9FED0F0ACE
:101CD00084ED020A9FED0D0A84ED030A9FED0B0AC5
:101CE00084ED050A9FED090A84ED060A9FED070AB7
:101CF00084ED040A9FED050A84ED160A012084F89C
:101D00005C0003F065FA206610BD000000000000D2
:101D100070B52DED068B8CB0FFF708FF0446002050
:101D200001900290002601F063FCBCEEC00AB0EE08
:101D300040AA00BF01F05CFCF8EE4A0A30EE600AEF
:101D4000F2EE040AB4EEE00AF1EE10FA10DD9FEDB7
:101D5000FE0A84ED0D0A9FEDFD0A84ED0E0A9FED4B
:101D6000FB0A84ED0F0A9FEDFA0A84ED130A3FE2A5
:101D70009FEDF80A01F0F8FB9FEDF70A84ED130AD6
:101D80009FEDF50A84ED0D0A9FEDF30A84ED0E0A2E
:101D90009FEDF10A84ED0F0A00258AE1EF48006803
:101DA00001F079FE9221EE4800680AF0CEFD922102
:101DB000EB4800680AF0C9FD062201A9E84800685E
:101DC0000AF0B3FDE548006801F074FE9DF80500D7
:101DD000000200B29DF80410084300EE100AB8EEAD
:101DE000C00AE048D0ED000A20EE200A84ED010A86
:101DF0009DF80700000200B29DF80610084300EEAF
:101E0000100AB8EEC00AD748D0ED000A20EE200A2A
:101E100084ED020A9DF80900000200B29DF8081046
:101E2000084300EE100AB8EEC00ACE48D0ED000A12
:101E300020EE200A84ED030AD4ED010A60EEA00A28
:101E400094ED021AD4ED021A41EE210A94ED031A20
:101E5000D4ED031A41EE210AB0EE600A0BF014FF34
:101E6000B0EE408A94ED130A30EE080A84ED130AAE
:101E7000BD48006801F00FFE8021B94800680AF0F3
:101E800064FD082201A9B64800680AF04EFDB64874
:101E9000006801F00FFE9DF804000F284DD19DF859
:101EA0000700000200B29DF80610084300EE100A79
:101EB000B8EEC00AAD48D0ED000A20EE200A84ED4D
:101EC000050A9DF80900000200B29DF808100843B9
:101ED00000EE100AB8EEC00AA448D0ED000A20EEC9
:101EE000200A84ED060A9DF80B00000200B29DF85E
:101EF0000A10084300EE100AB8EEC00A9B48D0ED65
:101F0000000A20EE200A84ED040A94ED0D0AD4EDB7
:101F1000050A30EE200A84ED0D0A94ED0E0AD4ED88
:101F2000060A30EE200A84ED0E0A94ED0F0AD4ED75
:101F3000040A30EE200A84ED0F0AE5B9F0EE488A73
:101F4000F0EE489A94ED050A8DED090A94ED050A24
:101F50008DED060A94ED060A8DED0A0A94ED060A47
:101F60008DED070A94ED040A8DED0B0A94ED040A39
:101F70008DED080A5BE0B4EEE88AF1EE10FA01DDBF
:101F8000F0EE488AB4EEE98AF1EE10FA01D2F0EEF2
:101F9000489A94ED050ADDED090AB4EEE00AF1EE87
:101FA00010FA03DD94ED050A8DED090A94ED050A9A
:101FB000DDED060AB4EEE00AF1EE10FA03D294ED7C
:101FC000050A8DED060A94ED060ADDED0A0AB4EE67
:101FD000E00AF1EE10FA03DD94ED060A8DED0A0A2F
:101FE00094ED060ADDED070AB4EEE00AF1EE10FA10
:101FF00003D294ED060A8DED070A94ED040ADDED97
:102000000B0AB4EEE00AF1EE10FA03DD94ED040AD7
:102010008DED0B0A94ED040ADDED080AB4EEE00A3A
:10202000F1EE10FA03D294ED040A8DED080A38EEB1
:10203000E99A002012E009A901EB800191ED000A64
:1020400006A901EB8001D1ED000A30EE600A03A978
:1020500001EB800181ED000A411CC8B20328EADBD4
:10206000B6EE000AB4EEC09AF1EE10FA1ADC9DED5D
:10207000030ADFED3F0AB4EEE00AF1EE10FA11DCDC
:102080009DED040ADFED3A0AB4EEE00AF1EE10FA33
:1020900008DC9DED050ADFED360AB4EEE00AF1EE4C
:1020A00010FA00DD0AE09FED330A01F05DFA681CCA
:1020B00085B2314800888542FFF670AE00BFD4ED8E
:1020C000130A2D48008800EE100AB8EE400A80EE90
:1020D000801A84ED131A002015E004F1340101EB9D
:1020E0008001D1ED000A2449098800EE101AB8EEEB
:1020F000400A80EE801A04F1340101EB800181ED89
:10210000001A411CC8B20328E7DB701C06B2B6EE09
:10211000000AB4EEC09AF1EE10FA3FF70BAE94ED60
:10212000130ADFED160A30EE600AB0EEC00AF6EED2
:10213000000AB4EEE00AF1EE10FAEEDC9DED030ABF
:10214000DFED0B0A1CE00000AC38223BB016CE39A4
:102150003F161B410AD7A33B00000000B00300203C
:10216000D8020020D0020020B4030020D4020020B6
:102170009A99193E6F12033A26030020CDCC1C41D8
:10218000B4EEE00AF1EE10FAC7DC9DED040A5FED53
:10219000080AB4EEE00AF1EE10FABEDC9DED050A85
:1021A0005FED0D0AB4EEE00AF1EE10FAB5DC94ED45
:1021B0000D0AB0EEC00ADFED150AB4EEE00AF1EE4A
:1021C00010FAAADC94ED0E0AB0EEC00ADFED0F0A99
:1021D000B4EEE00AF1EE10FA9FDC94ED0F0AB0EED7
:1021E000C00ADFED0A0AB4EEE00AF1EE10FA94DC60
:1021F00000BF94ED130ADFED060A80EE801A84ED2D
:10220000141A0CB0BDEC068B70BD00000AD7233C3D
:10221000C3F51C41D2ED020A92ED021AB6EE000A95
:1022200000EEC10AD2ED030A92ED031A00EEC10AD4
:10223000D0ED000A20EE200AD2ED010A92ED021A3A
:1022400060EE810A92ED001AD2ED031A41EE610AA6
:1022500090ED011A00EE810AD2ED010A92ED031A07
:1022600060EE810A92ED001AD2ED021A41EE210AC7
:1022700090ED021A00EE810AF0EE000A20EE200A2C
:1022800081ED000A92ED010AD2ED020A20EE200A49
:10229000D2ED000A92ED031A00EE810AD0ED000A99
:1022A00060EE200A92ED011AD2ED011AB6EE000A94
:1022B00001EE610AD2ED031A92ED032AB0EE401A44
:1022C00001EEC21AD0ED011AB0EE600A01EE210A49
:1022D000D2ED020A92ED031A60EE810A92ED001A25
:1022E000D2ED011A41EE610A90ED021A00EE810A68
:1022F000F0EE000A20EE200A81ED010A92ED010ABB
:10230000D2ED030A20EE200AD2ED000A92ED021A65
:1023100000EEC10AD0ED000A20EE200AD2ED020A3A
:1023200092ED031A60EE810A92ED001AD2ED011AC5
:1023300041EE210A90ED011A00EE810A92ED011A98
:10234000D2ED011AF6EE000A41EE610A92ED021A90
:10235000D2ED021A41EE610A90ED021A00EE810AF6
:10236000F0EE000A20EE200A81ED020A704700BF5D
:10237000FEE7000010B5024802F0CCF810BD0000E6
:10238000480C002010B5024802F0C4F810BD00004F
:10239000700C002030B5034613B94FF6FF7030BD06
:1023A00009E013F8014B82EA0400C0B2054D35F88C
:1023B000100080EA2222081EA1F10101F1D110468D
:1023C000EDE70000F419010830B5034605E013F805
:1023D000010B80EA02040448025D081EA1F101011C
:1023E000F5D1104630BD0000F418010870B505465F
:1023F0000C4600260DB1022C01D8002070BDA11E94
:10240000094802882846FFF7C5FF0646F1B2A01E1C
:10241000285C814206D1601E285CB0EB162F01D1EA
:102420000120EBE70020E9E7F804002070B505463D
:102430000C4600260DB1022C01D8002070BD611E93
:10244000064802782846FFF7BFFF0646601E285C54
:10245000B04201D10120F1E70020EFE7F5040020B0
:1024600000E07047FDE7000030B58BB00546194825
:10247000854202D10020069001E00E200690002047
:102480000790012008900020019002900390049092
:102490000590012009900E200A9001A9284601F01C
:1024A000C3FE044614B12046FFF7DAFF284602F0C7
:1024B000F8FA044614B12046FFF7D2FF022128465D
:1024C00001F0F8FD044614B12046FFF7C9FF0BB038
:1024D00030BD0000480C002010B5016042600024AF
:1024E000C46084600361047510BD000070B50546CA
:1024F0000C4616460E48854210D1206840B9314638
:102500000C480BF04CFD31460A480CF065FE05E026
:10251000324628462369216806F0ACF80648854211
:1025200005D1324628462369216806F0A3F870BD1C
:10253000480C0020AC8C0020700C0020F8B505463B
:102540000E4617466B463A463146284601F0C7FD0F
:10255000044614B12046FFF783FFF8BD00487047DA
:10256000A47D002070B5FFF7F9FF044600F01CFFC2
:10257000054600200AE000EB800101EBC00104EBFE
:102580004111897B012900D070BD401C0428F2DB79
:10259000D5ED060AB0EE600A04F1140006F0C0FDA5
:1025A0003448D0ED020AB0EE600A04F1140006F0DF
:1025B000B4FD04F1680104F1140006F05DFA9FED2A
:1025C0002E0A2C4806F048FAD5ED070AB0EE600A4C
:1025D00004F5DA7006F0A4FD2848D0ED020AB0EE4A
:1025E000600A04F5DA7006F098FD04F5027104F54E
:1025F000DA7006F041FA9FED200A204806F02CFA26
:10260000D5ED080AB0EE600A04F5557006F088FDB5
:102610001B48D0ED020AB0EE600A04F5557006F0D2
:102620007CFD04F56A7104F5557006F025FA9FEDFE
:10263000120A134806F010FAD5ED090AB0EE600A46
:1026400004F2F44006F06CFD0E48D0ED020AB0EE44
:10265000600A04F2F44006F060FD04F5A96104F29A
:10266000F44006F009FA9FED040A064806F0F4F972
:1026700000BF89E7548500209A99993EA8850020DB
:10268000FC8500205086002000B58DB0FFF766FF66
:102690000C9000200B902BE001210B9800EB8002A6
:1026A00002EBC0020C9800EB421081730B9800EB18
:1026B000800202EBC0020C9800EB4210C1739FED48
:1026C000FE0A0B9800EB800101EBC0010C9800EBB7
:1026D000411080ED000A00210B9800EB800202EB14
:1026E000C0020C9800EB421041730B98401C0B90F9
:1026F0000B980428D0DBF14890ED100A8DED0B0A01
:1027000090ED0F0A8DED0A0A90ED0B0A8DED090A86
:1027100090ED0A0A8DED080A90ED060A8DED070A84
:1027200090ED050A8DED060A90ED040A8DED050A7F
:1027300090ED030A8DED040A90ED020A8DED030A77
:1027400090ED010A8DED020A90ED000A8DED010A6F
:1027500000219DED0B5ADDED0A4A9DED094ADDEDA4
:10276000083A9DED073ADDED062A9DED052ADDEDDF
:10277000041A9DED031ADDED020A9DED010A0C9885
:10278000683006F085FCCE4890ED100A8DED0B0AFE
:1027900090ED0F0A8DED0A0A90ED0B0A8DED090AF6
:1027A00090ED0A0A8DED080A90ED060A8DED070AF4
:1027B00090ED050A8DED060A90ED040A8DED050AEF
:1027C00090ED030A8DED040A90ED020A8DED030AE7
:1027D00090ED010A8DED020A90ED000A8DED010ADF
:1027E00000219DED0B5ADDED0A4A9DED094ADDED14
:1027F000083A9DED073ADDED062A9DED052ADDED4F
:10280000041A9DED031ADDED020A9DED010A0C98F4
:10281000EC3006F03DFCAB4890ED100A8DED0B0A54
:1028200090ED0F0A8DED0A0A90ED0B0A8DED090A65
:1028300090ED0A0A8DED080A90ED060A8DED070A63
:1028400090ED050A8DED060A90ED040A8DED050A5E
:1028500090ED030A8DED040A90ED020A8DED030A56
:1028600090ED010A8DED020A90ED000A8DED010A4E
:1028700002219DED0B5ADDED0A4A9DED094ADDED81
:10288000083A9DED073ADDED062A9DED052ADDEDBE
:10289000041A9DED031ADDED020A9DED010A0C9864
:1028A00000F5B87006F0F4FB874890ED100A8DED46
:1028B0000B0A90ED0F0A8DED0A0A90ED0B0A8DEDD3
:1028C000090A90ED0A0A8DED080A90ED060A8DEDD1
:1028D000070A90ED050A8DED060A90ED040A8DEDCC
:1028E000050A90ED030A8DED040A90ED020A8DEDC4
:1028F000030A90ED010A8DED020A90ED000A8DEDBC
:10290000010A00219DED0B5ADDED0A4A9DED094AB1
:10291000DDED083A9DED073ADDED062A9DED052A2D
:10292000DDED041A9DED031ADDED020A9DED010AAD
:102930000C9800F5027006F0ABFB644890ED100AAD
:102940008DED0B0A90ED0F0A8DED0A0A90ED0B0A42
:102950008DED090A90ED0A0A8DED080A90ED060A40
:102960008DED070A90ED050A8DED060A90ED040A3B
:102970008DED050A90ED030A8DED040A90ED020A33
:102980008DED030A90ED010A8DED020A90ED000A2B
:102990008DED010A00219DED0B5ADDED0A4A9DEDFA
:1029A000094ADDED083A9DED073ADDED062A9DED79
:1029B000052ADDED041A9DED031ADDED020A9DEDF9
:1029C000010A0C9800F5237006F062FB3D4890ED7B
:1029D000100A8DED0B0A90ED0F0A8DED0A0A90EDAD
:1029E0000B0A8DED090A90ED0A0A8DED080A90EDAB
:1029F000060A8DED070A90ED050A8DED060A90EDA9
:102A0000040A8DED050A90ED030A8DED040A90EDA0
:102A1000020A8DED030A90ED010A8DED020A90ED98
:102A2000000A8DED010A02219DED0B5ADDED0A4AE7
:102A30009DED094ADDED083A9DED073ADDED062AE8
:102A40009DED052ADDED041A9DED031ADDED020A68
:102A50009DED010A0C9800F5447006F019FB1C4826
:102A600090ED100A8DED0B0A90ED0F0A8DED0A0A1C
:102A700090ED0B0A8DED090A90ED0A0A8DED080A1A
:102A800090ED060A8DED070A90ED050A8DED060A18
:102A900090ED040A8DED050A90ED030A8DED040A10
:102AA00090ED020A8DED030A90ED010A8DED020A08
:102AB00090ED000A0EE0000000000000D4150108AF
:102AC0008415010824160108C416010874160108AB
:102AD000641701088DED010A00219DED0B5ADDED13
:102AE0000A4A9DED094ADDED083A9DED073ADDED14
:102AF000062A9DED052ADDED041A9DED031ADDED94
:102B0000020A9DED010A0C9800F56A7006F0C0FA01
:102B1000B74890ED100A8DED0B0A90ED0F0A8DED80
:102B20000A0A90ED0B0A8DED090A90ED0A0A8DED67
:102B3000080A90ED060A8DED070A90ED050A8DED65
:102B4000060A90ED040A8DED050A90ED030A8DED5D
:102B5000040A90ED020A8DED030A90ED010A8DED55
:102B6000020A90ED000A8DED010A00219DED0B5A3D
:102B7000DDED0A4A9DED094ADDED083A9DED073A83
:102B8000DDED062A9DED052ADDED041A9DED031A03
:102B9000DDED020A9DED010A0C9800F22C4006F0D2
:102BA00077FA944890ED100A8DED0B0A90ED0F0A1C
:102BB0008DED0A0A90ED0B0A8DED090A90ED0A0AD7
:102BC0008DED080A90ED060A8DED070A90ED050AD5
:102BD0008DED060A90ED040A8DED050A90ED030ACD
:102BE0008DED040A90ED020A8DED030A90ED010AC5
:102BF0008DED020A90ED000A8DED010A02219DED96
:102C00000B5ADDED0A4A9DED094ADDED083A9DEDCE
:102C1000073ADDED062A9DED052ADDED041A9DED4E
:102C2000031ADDED020A9DED010A0C9800F596608D
:102C300006F02EFA704890ED100A8DED0B0A90ED1B
:102C40000F0A8DED0A0A90ED0B0A8DED090A90ED41
:102C50000A0A8DED080A90ED060A8DED070A90ED3F
:102C6000050A8DED060A90ED040A8DED050A90ED3A
:102C7000030A8DED040A90ED020A8DED030A90ED32
:102C8000010A8DED020A90ED000A8DED010A002186
:102C90009DED0B5ADDED0A4A9DED094ADDED083A3E
:102CA0009DED073ADDED062A9DED052ADDED041ABE
:102CB0009DED031ADDED020A9DED010A0C9800F569
:102CC000A96006F0E5F94D4890ED100A8DED0B0A6C
:102CD00090ED0F0A8DED0A0A90ED0B0A8DED090AB1
:102CE00090ED0A0A8DED080A90ED060A8DED070AAF
:102CF00090ED050A8DED060A90ED040A8DED050AAA
:102D000090ED030A8DED040A90ED020A8DED030AA1
:102D100090ED010A8DED020A90ED000A8DED010A99
:102D200000219DED0B5ADDED0A4A9DED094ADDEDCE
:102D3000083A9DED073ADDED062A9DED052ADDED09
:102D4000041A9DED031ADDED020A9DED010A0C98AF
:102D500000F2CC5006F09CF9264890ED100A8DED5B
:102D60000B0A90ED0F0A8DED0A0A90ED0B0A8DED1E
:102D7000090A90ED0A0A8DED080A90ED060A8DED1C
:102D8000070A90ED050A8DED060A90ED040A8DED17
:102D9000050A90ED030A8DED040A90ED020A8DED0F
:102DA000030A90ED010A8DED020A90ED000A8DED07
:102DB000010A02219DED0B5ADDED0A4A9DED094AFB
:102DC000DDED083A9DED073ADDED062A9DED052A79
:102DD000DDED041A9DED031ADDED020A9DED010AF9
:102DE0000C9800F5CA6006F053F90DB000BD000064
:102DF000141701082416010804180108B417010863
:102E000010B5FFF7ABFB044600200AE000EB8001A1
:102E100001EBC00104EB4111C97B012900D010BDB9
:102E2000401C0428F2DB024805F0D1FD00BFF6E7A4
:102E30008484002000B5014600F0B6FA0246117005
:102E400000BD000010B52DED048BB0EE408AF0EE11
:102E5000608AB0EE419A00F0A7FA0446207805286F
:102E60007DD2DFE800F003206AD7FD009FEDFE0A67
:102E700084ED010A9FEDFC0A84ED020A9FEDFA0A37
:102E800084ED030A9FEDF80A84ED060A9FEDF60A29
:102E900084ED070A9FEDF40A84ED080A9FEDF20A1B
:102EA00084ED090A26E2F14890ED000A28EE000AB6
:102EB00084ED010AEE4890ED000A28EE800A84EDC8
:102EC000020AEC4890ED000A29EE000A84ED030A9C
:102ED00094ED010AB1EE400AD4ED020A30EE600A28
:102EE000D4ED030A30EE600A84ED060A94ED010A7F
:102EF000D4ED020A30EE600AD4ED030A30EE600A27
:102F000084ED070A94ED010AD4ED020A30EE200A9E
:102F1000D4ED030A30EE600A84ED080A94ED010A4C
:102F2000B1EE400AD4ED020A30EE200AD4ED030AD5
:102F300030EE600A84ED090ADCE1CC4890ED000A2D
:102F400028EE000A84ED010AC94890ED000A28EE37
:102F5000800A84ED020AC84890ED000A00E0C8E14A
:102F600029EE000A84ED030A94ED030AC348D0ED6C
:102F7000000AB4EEE00AF1EE10FA04DD90ED000A6A
:102F800084ED030A11E094ED030ABC48D0ED000A79
:102F9000F1EE600AB4EEE00AF1EE10FA05D290ED1F
:102FA000000AB1EE400A84ED030A94ED010AB1EE85
:102FB000400AD4ED020A30EE600AD4ED030A30EE86
:102FC000600A84ED060A94ED010AD4ED020A30EE9F
:102FD000600AD4ED030A30EE600A84ED070A94ED2E
:102FE000010AD4ED020A30EE200AD4ED030A30EED5
:102FF000600A84ED080A94ED010AB1EE400AD4EDAE
:10300000020A30EE200AD4ED030A30EE600A84EDA5
:10301000090A6FE1954890ED000A28EE000A84ED58
:10302000010A934890ED000A28EE800A84ED020A16
:10303000934890ED000A29EE000A84ED030AD4EDCE
:10304000050AF1EE600A9FED8F1A70EE810AB0EE6C
:10305000600AFDF707FCD4ED010AF1EE600A00E01A
:10306000ECE060EE209AD4ED050AF1EE600AB0EED5
:10307000600AFDF76BFFD4ED020A40EEC09AD4ED72
:10308000050AF1EE600AB0EE600AFDF7EBFBD4ED45
:10309000020A40EEC09AD4ED050AF1EE600A9FEDF7
:1030A000791A70EE810AB0EE600AFDF74FFFD4ED99
:1030B000010A40EEC09A94ED030A39EEC00A84ED8D
:1030C000060AD4ED050AF1EE600A9FED6E1A70EE65
:1030D000810AB0EE600AFDF7C5FBD4ED010AF1EEFE
:1030E000600A60EE209AD4ED050AF1EE600AB0EEB7
:1030F000600AFDF72BFFD4ED020A40EE809AD4ED72
:10310000050AF1EE600AB0EE600AFDF7ABFBD4ED04
:10311000020A40EEC09AD4ED050AF1EE600A9FED76
:10312000591A70EE810AB0EE600AFDF70FFFD4ED78
:10313000010A40EE809A94ED030A39EEC00A84ED4C
:10314000070AD4ED050AF1EE600A9FED4E1A70EE03
:10315000810AB0EE600AFDF785FBD4ED010A60EE4E
:10316000209AD4ED050AF1EE600AB0EE600AFDF790
:10317000EDFED4ED020A40EE809AD4ED050AF1EEA0
:10318000600AB0EE600AFDF76DFBD4ED020A40EE76
:10319000809AD4ED050AF1EE600A9FED3A1A70EEBE
:1031A000810AB0EE600AFDF7D1FED4ED010A40EECF
:1031B000809A94ED030A39EEC00A84ED080AD4ED32
:1031C000050AF1EE600A9FED2F1A70EE810AB0EE4B
:1031D000600AFDF747FBD4ED010A60EE209AD4EDBA
:1031E000050AF1EE600AB0EE600AFDF7AFFED4ED1D
:1031F000020A40EEC09AD4ED050AF1EE600AB0EE84
:10320000600AFDF72FFBD4ED020A40EE809AD4ED60
:10321000050AF1EE600A9FED1B1A70EE810AB0EE0E
:10322000600AFDF793FED4ED010A40EEC09A94EDDA
:10323000030A39EEC00A84ED090A5BE00B4890ED01
:10324000000A28EE000A84ED010A094890ED000A00
:1032500028EE800A84ED020A064890ED000A29EE65
:10326000000A84ED030A0FE000000000D0120108FC
:10327000D4120108D8120108DC120108E01201087A
:10328000E4120108DB0FC93F94ED010AB1EE400AD8
:10329000D4ED020A30EE600AD4ED030A30EE600A83
:1032A00084ED060A94ED010AD4ED020A30EE600ABC
:1032B000D4ED030A30EE600A84ED070A94ED010AAA
:1032C000D4ED020A30EE200AD4ED030A30EE600A93
:1032D00084ED080A94ED010AB1EE400AD4ED020A29
:1032E00030EE200AD4ED030A30EE600A84ED090ABC
:1032F00000BF00BF00BFBDEC048B10BD10B52DEDAD
:10330000028BB0EE408AF0EE608A00F04DF8044681
:10331000B5EEC08AF1EE10FA0DDBB4EEE88AF1EEFC
:1033200010FA08D838EE680ADFED1D0A30EE200AE0
:1033300084ED040A0FE0B4EEE88AF1EE10FA0ADD3B
:103340009FED170AB4EEC08AF1EE10FA03D838EEFA
:10335000680A84ED040A94ED040ADFED120AB4EE63
:10336000E00AF1EE10FA10DB94ED040ADFED0C0A2E
:10337000B4EEE00AF1EE10FA07D894ED040ADFED9E
:10338000080A30EE600A84ED040AD4ED040AB0EEB7
:10339000600A05F00DF984ED050ABDEC028B10BD45
:1033A0000000B443000034430048704724840020E8
:1033B00000BF054809F0DEFAFFF7D4F8FFF720FD5B
:1033C00002200BF061F8F4E76484002004E006F0CA
:1033D00063F901200BF058F8F9E7000010B5024836
:1033E00001F000FC10BD00006810002010B502487C
:1033F00001F0F8FB10BD0000C810002010B5024815
:1034000001F0F0FB10BD0000A80F002010B502482D
:1034100001F0E8FB10BD00002811002010B50248A3
:1034200001F0E0FB10BD0000081000200146087804
:1034300010381823B0FBF3F20848805CC865032AF3
:1034400005D908686FF30900001D886503E0086866
:103450006FF309008865886D7047000064100108EB
:10346000014600208A6A8B69CBB932B1012A0DD09E
:10347000022A03D0032A10D10EE000BFCB6A03F06A
:103480008073B3F1807F00D1012007E0CB6AB3F1F4
:10349000C07F00D1012001E000E000BF34E08B6973
:1034A000B3F5005F1AD132B1012A07D0022A03D046
:1034B000032A11D10AE000BF01200EE0CB6A03F01D
:1034C0008073B3F1807F00D1012006E0CB6AB3F1B5
:1034D000C07F00D1012000E000BF15E032B1012A19
:1034E00005D0022A04D0032A0CD103E000BF00BF9C
:1034F000012008E0CB6A03F08073B3F1807F00D134
:10350000012000E000BF00BF704730B504682468A8
:1035100024F4802405682C60046863608468402C6F
:1035200004D10468A2600468E16003E00468A1605B
:103530000468E26030BD000008B5084840680090AB
:10354000074900980968884204D206480068401C70
:103550000449086002490098086008BD001000E0B6
:10356000F0030020EC0300200C494868F0EE400A0C
:1035700000BF0A494968091A01EE101AF8EE411A0B
:10358000074991ED001AB8EE411A20EE811AF4EEC7
:10359000C11AF1EE10FAECD370470000001000E001
:1035A000E003002010B52DED028B82B004460E48DA
:1035B0004068019020680199081A00EE100AF8EEA0
:1035C000400A0A4890ED000AB8EE400A80EE801AE0
:1035D000B0EE418A01982060FFF7AEFFB0EE480AD6
:1035E00002B0BDEC028B10BD001000E0E003002033
:1035F00010B52DED028B00F059F80F4890ED000A40
:10360000B8EE400A808800EE900AF8EE600A9FED5E
:103610000B1A00EE810A0848C08800EE900AF8EE06
:10362000600A9FED071A00EE810AB0EE408AB0EE04
:10363000480ABDEC028B10BDD80300206F12833AFC
:10364000BD3786351249096841F08071104A116012
:103650000021104A51601146096841F001011160D2
:103660000D4941430D4A1160114609684FF47A72C1
:10367000B1FBF2F10A4A116008490968064AB1FB38
:10368000F2F1084A11600021074A116070470000FA
:10369000FCED00E0001000E040420F00E0030020DD
:1036A000E4030020E8030020EC03002038B529489B
:1036B00040680090FFF740FF274800684FF0FF3157
:1036C000A0FB01310098181841F10001234A03C200
:1036D000234800232149026803C9FCF7D1FD214A90
:1036E00003C220480CC81E4800680024A2FB001535
:1036F00003FB005002FB04021848D0E90030591ABD
:1037000060EB0200184AC2E9001016480068174929
:103710000860174800231449026803C9FCF7B0FD8C
:1037200012498880084680881149096841430E483B
:10373000D0E90030591A60F100000E4AC2E90010C9
:103740000D4800230B49026803C9FCF799FD07499E
:10375000C88038BD001000E0EC030020F803002012
:10376000E00300200004002008040020D80300200B
:10377000E403002010040020E8030020704700004C
:103780002DE9F04F8FB004460D4616461F46DDE981
:103790001AABDDE918890020CDE9069002900346B6
:1037A00001222146CDE908ABCDE90478CDE90056E8
:1037B00003900BA807F030F905490978884202D038
:1037C0000FB0BDE8F08F0BA807F04EF800BFF7E789
:1037D000E310010838B50A4C0A4D06F0F1FF00204D
:1037E00085F8C20102208DF8000000208DF801004C
:1037F000054A9378218910886A4607F0D5FA38BDC2
:10380000008C0020DB8D0020D411010838B504465F
:10381000074D06F0D5FF01208DF800008DF801401E
:10382000044A9378298910886A4607F0BDFA38BDA2
:10383000008C0020D41101082DE9FF4F93B00446FD
:1038400015461E46DDE921ABDDF88090249F06F089
:10385000B7FF3846FCF769FD00F0FF0823982B46B8
:103860002246CDE903ABCDE90198009605900FA85B
:10387000149907F04FF90B490978884202D017B024
:10388000BDE8F08F242106A8FCF744FD42463946E6
:1038900006A8FCF726FD06A90FA807F063FA00BFEB
:1038A000EDE70000E310010810B5082001F07AFBF5
:1038B00010BD10B5102001F075FB10BD10B5202013
:1038C00001F070FB10BDD2ED020A92ED021AB6EEC5
:1038D000000A00EEC10AD2ED030A92ED031A00EECF
:1038E000C10AD0ED000A20EE200AD2ED010A92EDC5
:1038F000021A60EE810A92ED001AD2ED031A41EE2F
:10390000210A90ED011A00EE810AD2ED010A92ED32
:10391000031A60EE810A92ED001AD2ED021A41EE0E
:10392000610A90ED021A00EE810AF0EE000A20EE24
:10393000200A81ED000A92ED010AD2ED020A20EE82
:10394000200AD2ED000A92ED031A00EEC10AD0ED72
:10395000000A60EE200A92ED011AD2ED011AB6EECD
:10396000000A01EE610AD2ED031A92ED032AB0EECD
:10397000401A01EEC21AD0ED011AB0EE600A01EE53
:10398000210AD2ED020A92ED031A60EE810A92ED4D
:10399000001AD2ED011A41EE210A90ED021A00EE52
:1039A000810AF0EE000A20EE200A81ED010A92ED74
:1039B000010AD2ED030A20EE200AD2ED000A92EDB0
:1039C000021A00EE810AD0ED000A20EE200AD2EDA4
:1039D000020A92ED031A60EE810A92ED001AD2ED0E
:1039E000011A41EE610A90ED011A00EE810A92ED92
:1039F000011AD2ED011AF6EE000A41EE610A92EDCB
:103A0000021AD2ED021A41EE610A90ED021A00EE9E
:103A1000810AF0EE000A20EE200A81ED020A7047CA
:103A200072B600BFFEE7F0EE400A90ED000AB5EE78
:103A3000C00AF1EE10FA08D990ED000AB7EE001AAC
:103A4000B4EEC10AF1EE10FA02DBB0EE600A704784
:103A500090ED000AB7EE001A31EE400A91ED011A1E
:103A600020EE010A90ED001A01EE200A81ED000A15
:103A700091ED000A81ED010A91ED000AE7E780ED82
:103A8000000A704710B50446A188206801F092FB37
:103A90002074207C10BD10B5044601F099FBA06095
:103AA000A1880022206801F08DFB2046FFF7EAFF85
:103AB000207410BD10B5044601F08AFBA060A188F7
:103AC0000122206801F07EFB2046FFF7DBFF207417
:103AD00010BD0A7802704A7842708A788270CA787B
:103AE00002710B7943714A7982718B79C371CA79FA
:103AF00002720B7A43724A7A82728B7AC372CA7AE2
:103B000002730B7B43734A7B82738A7BC2730A788E
:103B10000AB9002202704A780AB9002242708A78F3
:103B20000AB900228270CA780AB9002202710A79A1
:103B30000AB9002343714A790AB9002282718A794D
:103B40000AB90023C371CA790AB9002202720A7A3B
:103B50000AB9002343724A7A0AB9002282728A7A29
:103B60000AB90023C372CA7A0AB9002202730A7B17
:103B70000AB9002343734A7B0AB9002282738A7B05
:103B80000AB90022C273704770B52DED028B00F0A8
:103B900053F8044603F0BAF90546A079012802D08B
:103BA000BDEC028B70BD9FED1D0A84ED460A0AF044
:103BB00091FA95ED1C0ADFED1A0A60EE200A9FEDDE
:103BC000191A80EE810A1848D0ED000A30EE200A5A
:103BD000164880ED000A94ED000AD4ED450A70EE17
:103BE000600A94ED450A94ED461A01EE200A84ED30
:103BF000450A94ED450AD0ED000A0D4890ED001AF3
:103C0000B0EE408A00EEC18AB0EE480A00F0BEF97C
:103C1000084880ED100A00BFC2E70000CDCCCC3DC3
:103C2000DB0F4940000034434C0400209002002088
:103C300094020020AC8C00200048704720790020BE
:103C400010B5FFF7F9FF04460120A071E0719FED68
:103C5000370A84ED000A002060719FED350A84ED7B
:103C6000450A3448D0ED105AB0EE655AD0ED0F5ADF
:103C7000F0EE654AD0ED0B5AB0EE654AD0ED0A5A27
:103C8000F0EE653AD0ED065AB0EE653AD0ED055A41
:103C9000F0EE652AD0ED045AB0EE652AD0ED035A55
:103CA000F0EE651AD0ED025AB0EE651AD0ED015A69
:103CB000F0EE650AD0ED005AB0EE650A002104F17D
:103CC000600005F0E5F91C48D0ED105AB0EE655AD9
:103CD000D0ED0F5AF0EE654AD0ED0B5AB0EE654AC2
:103CE000D0ED0A5AF0EE653AD0ED065AB0EE653ADC
:103CF000D0ED055AF0EE652AD0ED045AB0EE652AF3
:103D0000D0ED035AF0EE651AD0ED025AB0EE651A06
:103D1000D0ED015AF0EE650AD0ED005AB0EE650A1A
:103D2000002104F1E40005F0B3F910BDCDCC4C3E08
:103D300000000000F01201084013010870B5FFF701
:103D40007BFF044600F09EF80546E079012800D08C
:103D500070BDE87B012800D0FAE7024804F037FE86
:103D600000BFF5E7B884002000B5FFF765FF014606
:103D7000D1ED000A70EE800AC1ED000AD1ED000A13
:103D80000D4890ED001AF4EEC10AF1EE10FA04DDD0
:103D9000D0ED000AC1ED000A0DE0D1ED000A0748A0
:103DA00090ED001AF4EEC10AF1EE10FA03D2D0ED54
:103DB000000AC1ED000A00BD580400205C04002088
:103DC00070B52DED028B00F05DF8044603F09EF80F
:103DD0000546A07B012802D0BDEC028B70BDD4ED5E
:103DE000000AB0EE600A04F1980005F099F9D5EDEB
:103DF0001F0AB0EE600A04F1980005F08EF904F194
:103E0000EC0104F1980004F037FE95ED1F0A184804
:103E100080ED000A04F1980005F017F8B0EE408A32
:103E200004F1140005F07CF9D5ED060AB0EE600A45
:103E300004F1140005F071F904F1680104F11400B3
:103E400004F01AFEB0EE000A0A4804F002FEB0EEDA
:103E5000000A094804F0FDFDB0EE000A074804F02E
:103E6000F8FDB0EE000A064804F0F3FD00BFB3E72A
:103E700098020020F88600204C870020A0870020B0
:103E8000F4870020004870473C7A002010B5FFF707
:103E9000F9FF04460120A073E0739FED350A84ED1D
:103EA000000A002060733348D0ED105AB0EE655A16
:103EB000D0ED0F5AF0EE654AD0ED0B5AB0EE654AE0
:103EC000D0ED0A5AF0EE653AD0ED065AB0EE653AFA
:103ED000D0ED055AF0EE652AD0ED045AB0EE652A11
:103EE000D0ED035AF0EE651AD0ED025AB0EE651A25
:103EF000D0ED015AF0EE650AD0ED005AB0EE650A39
:103F0000002104F1680005F0C3F81B48D0ED105AF9
:103F1000B0EE655AD0ED0F5AF0EE654AD0ED0B5A6F
:103F2000B0EE654AD0ED0A5AF0EE653AD0ED065A89
:103F3000B0EE653AD0ED055AF0EE652AD0ED045AA0
:103F4000B0EE652AD0ED035AF0EE651AD0ED025AB4
:103F5000B0EE651AD0ED015AF0EE650AD0ED005AC8
:103F6000B0EE650A002104F1EC0005F091F810BDF7
:103F70000000000090130108E013010800B5FFF7EE
:103F800081FF014681ED000A00BD000070B52DEDF6
:103F9000028BB0EE408A05F057FB0546FFF74CFE5A
:103FA000064602F0B3FF04460D4890ED000AB4EE59
:103FB000C08AF1EE10FA04DD90ED000ABDEC028B30
:103FC00070BD084890ED000AB4EEC08AF1EE10FA18
:103FD00002D290ED000AF1E7B0EE480AEEE70000E9
:103FE000440400204804002070B52DED028BB0EE93
:103FF000408A05F029FB044602F088FF0546E07D73
:10400000012804D1B0EE480ABDEC028B70BD95EDDD
:104010001F0AD4ED040A30EE600A1448D0ED000AFD
:10402000F1EE600AB4EEE00AF1EE10FA04D2B5EE59
:10403000C08AF1EE10FA12DC95ED1F0AD4ED040AE5
:1040400030EE600A0948D0ED000AB4EEE00AF1EE65
:1040500010FA07DDB5EEC08AF1EE10FA02D29FED3C
:10406000040AD1E7B0EE480ACEE700003004002091
:104070000000000004F0F3FC00BF0B4808F02EFF26
:10408000094807F097FF094809F050FFFFF77CFD4A
:10409000FFF796FEFFF752FE0449054809F019FFA5
:1040A00002200AF0F1F9E8E7EE780020AC8C00205D
:1040B000480C002010B5024692F82030012B01D0A8
:1040C000022B06D110684069084314686061002023
:1040D00010BD506A40F4802050620120F8E7F0B52E
:1040E00004460D461E4694F8207020688368A86830
:1040F00000B900E000BF012F01D0022F7DD103F0F5
:10410000806030B903F0006018B903F080500028D7
:104110007ED0C3F30161012088403060A86860B997
:10412000B5F800C0E86840EA4C5C206800F5C07053
:1041300000EB0110C0F800C00FE0D5E901C040EA73
:10414000CC00D5F80CC040EA0C00D4F800C00CF547
:10415000C07C0CEB011CCCF80000D5F810C0206826
:1041600000F5C07000EB0110C0F804C0287D0128E4
:104170000ED1206800F5C07000EB0110406840F4DB
:10418000807C206800F5C07000EB0110C0F804C00E
:10419000D079000692F806C040EA0C4092F805C0BB
:1041A00040EA0C2092F804C040EA0C00D4F800C0A9
:1041B0000CF5C07C0CEB011CCCF80C00D078000690
:1041C00092F802C040EA0C4092F801C040EA0C208C
:1041D00092F800C040EA0C00D4F800C00CF5C07C96
:1041E0000CEB011CCCF80800206800F5C07000EB57
:1041F0000110006840F0010C01E00FE008E02068C9
:1042000000F5C07000EB0110C0F800C00020F0BD48
:10421000606A40F4001060620120F8E7606A40F4D0
:10422000802060620120F2E7F0B504460A4694F867
:104230002050012D01D0022D7ED1424901F500719F
:10424000086840F001000860086820F47C500860AD
:104250000868566A40EA06200860107D00F01F06D4
:10426000012000FA06F3C8699843C861A1F50071FE
:10427000D069C8B9D1F80C029843C1F80C029088F3
:1042800080B2968940EA064601F51070576940F8F9
:104290003760108880B2168940EA064601F5107032
:1042A000576900EBC7004660D069012819D1D1F8E1
:1042B0000C021843C1F80C02908880B2168840EABC
:1042C000064601F51070576940F83760908980B252
:1042D000168940EA064601F51070576900EBC700E1
:1042E0004660906928B9D1F804029843C1F80402E5
:1042F00004E0D1F804021843C1F80402106928B997
:10430000D1F814029843C1F8140204E0D1F8140261
:104310001843C1F81402106A012804D1D1F81C0214
:104320001843C1F81C02D1F8000220F00100C1F8C6
:1043300000020020F0BDFFE7606A40F48020606268
:104340000120F7E700640040704770B5044694F818
:104350002050012D01D0022D7DD151B92068C068B7
:1043600000F0030080B9606A40F400106062012030
:1043700070BD2068006900F0030028B9606A40F44D
:10438000001060620120F3E7206800F5D87000EBB0
:104390000110006800F004009060906840B9206847
:1043A00000F5D87000EB01100068400D106007E0C8
:1043B000206800F5D87000EB01100068C00850605C
:1043C000206800F5D87000EB0110006800F00200D2
:1043D000D060206800F5D87000EB0110406800F054
:1043E0000F00082802D30820106108E0206800F5BB
:1043F000D87000EB0110406800F00F0010612068D9
:1044000000F5D87000EB0110406800F47F40000A0E
:104410009061206800F5D87000EB01104068000C36
:104420005061206800F5D87000EB011080681870AA
:10443000206800F5D87000EB0110806800F47F4020
:10444000000A5870206800F5D87000EB01108068F1
:1044500000F47F0000E03CE0000C9870206800F55C
:10446000D87000EB01108068000ED870206800F54D
:10447000D87000EB0110C0681871206800F5D87082
:1044800000EB0110C06800F47F40000A58712068FA
:1044900000F5D87000EB0110C06800F47F00000C3C
:1044A0009871206800F5D87000EB0110C068000E0C
:1044B000D87131B92068C06840F020002668F060EB
:1044C00005E02068006940F0200026683061002087
:1044D0004EE7606A40F480206062012048E70146B0
:1044E000002091F82020012A01D0022A11D10B6866
:1044F0009B6803F0806303B1401C0B689B6803F06A
:10450000006303B1401C0B689B6803F0805303B148
:10451000401C70472DE9F05F04460025206846697D
:104520002068D0F80490206887682068D0F80CA034
:104530002068D0F810B02068D0F8188006F001008C
:10454000002855D007F00100C0B101202168886023
:1045500007F0020018B1204600F0D3FA0EE007F091
:10456000040010B145F4006508E007F0080010B140
:1045700045F4805502E0204600F0C2FA07F480704E
:10458000C8B14FF480702168886007F4007018B1DA
:10459000204600F0B8FA0EE007F4806010B145F450
:1045A000005508E007F4006010B145F4804502E0D2
:1045B000204600F0A7FA07F48030C8B14FF48030ED
:1045C0002168886007F4003018B1204600F09DFA99
:1045D0000EE007F4802010B145F4004508E007F430
:1045E000002010B145F4803502E0204600F08CFA3E
:1045F00006F0080038B10AF0100020B145F400754B
:1046000010202168C86006F0040040B10AF00800DC
:1046100028B108202168C860204600F00DFA06F095
:10462000020038B12068C06800F0030010B12046D5
:1046300000F004FA06F0400038B10BF0100020B191
:1046400045F4806510202168086106F0200040B123
:104650000BF0080028B1082021680861204600F00E
:1046600005FA06F0100038B12068006900F0030078
:1046700010B1204600F0FCF906F4003040B109F01A
:10468000100028B1102021684860204600F008FA88
:1046900006F4803040B109F0080028B108202168F4
:1046A0004860204600F032FA06F4004088B309F072
:1046B000040078B306F4807020B108F0010008B15E
:1046C00045F0010506F4007020B108F0020008B1C1
:1046D00045F0020506F4806020B108F0040008B13E
:1046E00045F0040506F40060A0B108F0700088B140
:1046F00008F07000402817D006DC10280BD02028C6
:104700000CD0302819D10CE0502810D0602814D1DA
:1047100010E01DE019E045F008050FE045F0100538
:104720000CE045F0200509E045F0400506E045F0C5
:10473000800503E045F4807500E000BF00BF2068FD
:10474000806920F070002168886104202168486039
:104750002DB1606A284360622046FFF7F5FDBDE891
:10476000F09F70B504460CB9012070BD94F820008C
:1047700010B9204600F0B0F82068006840F0010051
:104780002168086000F024FD05460DE000F020FDE2
:10479000401B0A2808D9606A40F400306062052096
:1047A00084F820000120E0E72068406800F0010064
:1047B0000028EBD02068006820F002002168086023
:1047C00000F006FD05460DE000F002FD401B0A2842
:1047D00008D9606A40F400306062052084F8200047
:1047E0000120C2E72068406800F002000028EBD1F9
:1047F000207E012806D12068006840F080002168F2
:10480000086005E02068006820F0800021680860EA
:10481000607E012806D12068006840F040002168D1
:10482000086005E02068006820F04000216808600A
:10483000A07E012806D12068006840F02000216891
:10484000086005E02068006820F02000216808600A
:10485000E07E012806D12068006820F01000216861
:10486000086005E02068006840F0100021680860DA
:10487000207F012806D12068006840F008002168E8
:10488000086005E02068006820F0080021680860E2
:10489000607F012806D12068006840F0040021688C
:1048A000086005E02068006820F0040021680860C6
:1048B000D4E902010843216908436169084361683A
:1048C000491E08432168C86100206062012084F805
:1048D0002000002049E7000010B586B004461421EE
:1048E00001A8FBF717FD4E492068884241D14D4889
:1048F0000068401C4B4908600846006801280FD139
:1049000000BF002000904848006840F00070464911
:1049100008600846006800F00070009000BF00BF0B
:1049200000BF0020009040481038006840F00800A8
:104930003D49103908600846006800F00800009002
:1049400000BF00BF032001900220029000200390CE
:10495000032004900920059001A9344800F030FBA1
:1049600000220621142000F0FBFC142000F0E4FCDF
:1049700054E02F492068884250D100BF00200090A9
:104980002948006840F080602749086008460068B0
:1049900000F08060009000BF00BF22480068401C0B
:1049A000204908600846006801280FD100BF002098
:1049B00000901D48006840F000701B4908600846E0
:1049C000006800F00070009000BF00BF00BF002032
:1049D000009015481038006840F002001249103964
:1049E00008600846006800F00200009000BF00BFA9
:1049F0006020019002200290002003900320049088
:104A00000920059001A90B4800F0DAFA00220621DE
:104A1000402000F0A5FC402000F08EFC06B010BD48
:104A2000006400402800002040380240000C024092
:104A300000680040000402407047000070B5054661
:104A4000084B094A00212846FFF77FFC044614B1B1
:104A50002046FDF705FD034A03492846FDF746FDBC
:104A600070BD0000BC8F0020A08F002070470000A8
:104A700070B50546084B094A01212846FFF765FC39
:104A8000044614B12046FDF7EBFC034A03492846CF
:104A9000FDF72CFD70BD0000BC8F0020A08F002012
:104AA000704770B5044694F82000012822D10220F6
:104AB00084F820002068006820F001002168086068
:104AC00000F086FB05460DE000F082FB401B0A2843
:104AD00008D9606A40F400306062052084F8200044
:104AE000012070BD2068406800F001000028EBD173
:104AF0006062F6E7606A40F4002060620120F0E73F
:104B0000704770477047704770477047704770B57F
:104B10000446A56D00F05CFB064694F835000228BB
:104B200008D08020606500BF002084F8340000BFFA
:104B3000012070BD2068006820F016002168086020
:104B40002068406920F0800021684861206C08B925
:104B5000A06C28B12068006820F008002168086077
:104B60002068006820F001002168086010E000F073
:104B70002FFB801B05280BD920206065032084F8BB
:104B8000350000BF002084F8340000BF0320D0E7C8
:104B90002068006800F001000028E8D194F85C105B
:104BA0003F208840A860012084F8350000BF002025
:104BB00084F8340000BF00BFBBE7014691F8350020
:104BC000022803D08020486501207047052081F825
:104BD00035000868006820F001000A6810600020B5
:104BE000F3E70000F8B50446002000908C48006808
:104BF0004FF41651B0FBF1F7A56D2E6894F85C10D8
:104C000008208840304098B12068006800F0040017
:104C100070B12068006820F004002168086094F8F2
:104C20005C1008208840A860606D40F0010060655D
:104C300094F85C1001208840304068B120684069D9
:104C400000F0800040B194F85C1001208840A8601A
:104C5000606D40F00200606594F85C1004208840AC
:104C6000304068B12068006800F0020040B194F85C
:104C70005C1004208840A860606D40F0040060650E
:104C800094F85C1010208840304078B320680068A9
:104C900000F0080050B394F85C1010208840A86021
:104CA0002068006800F4802080B12068006800F46B
:104CB000002028B9206CC8B12046216C884715E037
:104CC000A06C98B12046A16C88470FE0206800686E
:104CD00000F4807028B92068006820F0080021687E
:104CE0000860206C10B12046216C884794F85C1055
:104CF000202088403040002865D02068006800F0FF
:104D0000100000285FD094F85C1020208840A86034
:104D100094F83500052828D12068006820F0160096
:104D2000216808602068406920F08000216848619F
:104D3000206C08B9A06C28B12068006820F0080039
:104D40002168086094F85C103F208840A86001202A
:104D500084F8350000BF002084F8340000BF206DC7
:104D600010B12046216D8847F8BD2068006800F426
:104D7000802080B12068006800F4002028B9606CB1
:104D800010B12046616C88471DE0E06BD8B1204629
:104D9000E16B884717E02068006800F4807068B90C
:104DA0002068006820F0100021680860012084F865
:104DB000350000BF002084F8340000BFE06B10B164
:104DC0002046E16B8847606D38B3606D00F00100EC
:104DD000F0B1052084F835002068006820F001005B
:104DE0002168086000BF0098401C0090B84200D9BC
:104DF00005E02068006800F001000028F3D100BF42
:104E0000012084F8350000BF002084F8340000BF82
:104E1000E06C10B12046E16C884700BFA4E70000B9
:104E20003C0000202DE9F0410446002500F0D0F9B7
:104E3000074614B90120BDE8F081606A00B100BFE7
:104E4000022084F8350000BF002084F8340000BF41
:104E50002068006820F00100216808600AE000F086
:104E6000B7F9C01B052805D920206065032084F808
:104E70003500E0E72068006800F001000028EED16E
:104E80002068056821480540D4E901010843E1682C
:104E900008432169084361690843A1690843E1693E
:104EA0000843216A08430543606A042803D1D4E912
:104EB0000B0108430543206805602068456925F01B
:104EC0000705606A0543606A04280DD1A06A05439E
:104ED000E06A48B12046FEF7C3FA28B14020606579
:104EE000012084F83500A6E7206845612046FEF7DA
:104EF0009DFA064694F85C103F208840B060002080
:104F00006065012084F83500002094E73F8010F0B0
:104F10002DE9F04104460D4616461F464FF00008A5
:104F200000BF94F83400012802D10220BDE8F081CE
:104F3000012084F8340000BF94F83500012811D115
:104F4000022084F83500002060653B463246294641
:104F50002046FEF7DAFA2068006840F00100216878
:104F6000086006E000BF002084F8340000BF4FF066
:104F700002084046DAE7000070B5044600F028F960
:104F800006462546681C10B104480078054400BF59
:104F900000F01EF9801BA842FAD370BD3800002033
:104FA0007047000010B5044604480068204020B156
:104FB000024804602046FFF7F3FF10BD143C014097
:104FC000F8B502460B460025002400200021D6E05B
:104FD000012606FA01F51E6806EA0504AC4274D102
:104FE0001E7906F00306012E04D01E7906F0030692
:104FF000022E13D190684F000326BE40B0434F00ED
:10500000DE68BE4030439060506801268E40B04359
:105010001E79C6F300168E40304350601E7906F0AC
:105020000306032E09D0D0684F000326BE40B043CC
:105030004F009E68BE403043D0601E7906F00306E4
:10504000022E13D1CF0802F1200656F827004E0792
:10505000F70E0F26BE40B0434F07FF0E1E69BE403D
:105060003043CF0802F1200646F8270010684F00B1
:105070000326BE40B0431E7906F003064F00BE4033
:10508000304310605E6806F44036002E76D000BFD4
:10509000002600963C4E366846F480463A4F3E6005
:1050A0003E46366806F48046009600BF00BF374E85
:1050B0008F0856F827008E07370F0F26BE40B043E3
:1050C000334EB24202D1002624E057E0314EB242C4
:1050D00001D101261EE0304EB24201D1022619E074
:1050E0002E4EB24201D1032614E02D4EB24201D120
:1050F00004260FE02B4EB24201D105260AE02A4ECB
:10510000B24201D1062605E0284EB24201D107265F
:1051100000E008268F073F0FBE4030431B4E8F082C
:1051200046F82700224E3068A0435E6806F48016D9
:1051300006B120431E4E3060361D3068A0435E68C5
:1051400006F4001606B12043194E361D3060184E85
:10515000361F3068A0435E6806F4003606B120436F
:10516000134E361F3060361F3068A0435E6806F469
:10517000803606B120430E4E083E3060491C10298F
:10518000FFF426AFF8BD0000443802400838014063
:10519000000002400004024000080240000C0240EF
:1051A000001002400014024000180240001C02409F
:1051B000083C0140024613690B400BB1012000E09E
:1051C000002070470AB1816101E00B0483617047E0
:1051D0000148006870470000300000200348006864
:1051E00003490978084401490860704730000020ED
:1051F0003800002010B50D48006840F400700B49DD
:1052000008600846006840F480600860084600684E
:1052100040F480700860032000F0E0F80F2000F0F8
:1052200007F800F05FF8002010BD0000003C0240CD
:105230002DE9F04188B004460027B84600BF0020A1
:1052400001902348006840F010002149086008469A
:10525000006800F01000019000BF00BF02A903A881
:1052600000F092F9069F1FB900F0B6F9054602E07A
:1052700000F0B2F945001748B5FBF0F0A0F10108C5
:1052800015481649086040F2E7311448C160C0F87B
:105290000480002101618160816100F02DFF0646DC
:1052A00096B90E4800F0AEFF06466EB9362000F003
:1052B00043F8102C07D200222146362000F050F887
:1052C0000748046000E00126304608B0BDE8F081E0
:1052D0004038024040420F0000100040881100207A
:1052E0003400002008B500BF00200090114800687D
:1052F00040F480400F4908600846006800F4804090
:10530000009000BF00BF00BF00200090081F006891
:1053100040F08050091F08600846006800F0805087
:10532000009000BF00BF00220F21901E00F018F86F
:1053300008BD0000443802400146084600280DDB45
:1053400000BF00BF00F01F0301229A4043099B00E9
:1053500003F1E023C3F8002100BF00BF00BF704786
:105360002DE9F05F80460D461646002708F01CFA2E
:10537000074639462A46334601F00700C0F1070ABE
:10538000BAF1040F02D94FF0040A01E0C0F1070A94
:10539000D14600F1040ABAF1070F02D24FF0000A19
:1053A00001E0A0F1030AD4464FF0010A0AFA09FA13
:1053B000AAF1010A0AEA020A0AFA0CFA4FF0010BF2
:1053C0000BFA0CFBABF1010B0BEA030B4AEA0B04E3
:1053D0002146404608F0F0F9BDE8F09F00BF00F01C
:1053E0000702064B19684FF6FF031940044B0B43A5
:1053F00043EA0221014B196000BF70470CED00E049
:105400000000FA0570B504460D460CB9012070BDC8
:105410005848006800F00700A84209D255490D70AD
:105420000846006800F00700A84201D00120EEE71E
:10543000207800F0020002281DD1207800F004003E
:10544000042805D14C48006840F4E0504A490860FF
:10545000207800F00800082805D14748006840F48B
:105460006040454908604448006820F0F000A168A9
:10547000084341490860207800F00100A8B3606843
:10548000012807D13C4808380068C0F34040B8B94B
:105490000120BCE76068022802D06068032807D1B9
:1054A000354808380068C0F3406048B90120AEE7CD
:1054B000314808380068C0F3400008B90120A6E769
:1054C0002D48006820F00300616808432A490860FD
:1054D000FFF77EFE064609E0FFF77AFE801B41F2E9
:1054E0008831884202D9032091E707E0224800680A
:1054F00000F00C006168B0EB810FEDD11D48006831
:1055000000F00700A84209D91A490D700846006842
:1055100000F00700A84201D0012078E7207800F0D1
:105520000400042807D11448006820F4E050E16822
:10553000084311490860207800F00800082808D1C5
:105540000D48006820F46040216940EAC1000A4922
:10555000086000F061F808490968C1F30311074ABF
:10556000515CC8400649086006480068FFF760FEC5
:1055700000204CE7003C0240083802406C10010853
:105580003C000020340000200F2202600D4A126807
:1055900002F0030242600B4A126802F0F0028260DD
:1055A000084A126802F4E052C260064A126802F425
:1055B0006042D2080261044A126802F007020A60DF
:1055C0007047000008380240003C02400148006873
:1055D000704700003C00002000B5FFF7F7FF0449CA
:1055E0000968C1F38221034A515CC84000BD000034
:1055F000083802407C10010800B5FFF7E7FF0449B6
:105600000968C1F34231034A515CC84000BD000043
:10561000083802407C1001082DE9F04700240025DD
:105620000026A1462548006800F00C0020B104289F
:1056300005D008283AD105E0DFF8849039E0DFF89A
:10564000849036E01D48001F006800F03F041B48AE
:10565000001F006800F4800078B11A481749091F3C
:105660000968C1F38811A0FB01700146224600239E
:105670003846FAF705FE05460EE011480F49091FA6
:105680000968C1F38811A0FB01700146224600237E
:105690003846FAF7F5FD05460848001F0068C0F3D4
:1056A0000140401C4600B5FBF6F902E0DFF810901F
:1056B00000BF00BF4846BDE8F08700000838024040
:1056C0000024F400001BB700F8B504460CB9012013
:1056D000F8BD207800F00100002874D0F948006877
:1056E00000F00C0004280DD0F648006800F00C0013
:1056F000082813D1F348001F006800F48000B0F5BB
:10570000800F0BD1EF4808380068C0F340400028F4
:1057100059D06068002856D10120D9E700BF6068E1
:10572000B0F5803F08D1E7480838006840F4803081
:10573000E449083908601EE06068B0F5A02F0DD17B
:10574000E0480838006840F48020DE4908390860E5
:105750000846006840F4803008600CE0D9480838FA
:10576000006820F48030D74908390860084600688E
:1057700020F48020086000BF606890B1FFF728FD2A
:10578000054606E0FFF724FD401B642801D90320ED
:105790009EE7CC4808380068C0F340400028F1D0AC
:1057A00011E0FFF715FD054606E0FFF711FD401B70
:1057B000642801D903208BE7C24808380068C0F389
:1057C00040400028F1D1207800F0020002285FD18B
:1057D000BC48006800F00C0058B1BA48006800F0FE
:1057E0000C0008281CD1B748001F006800F4800096
:1057F000B0B9B44808380068C0F3400020B1E06890
:10580000012801D0012063E7AE480838006820F085
:10581000F800216940EAC100AA490839086037E068
:10582000E06800B30120A8490860FFF7D1FC0546F5
:1058300006E0FFF7CDFC401B022801D9032047E713
:10584000A04808380068C0F340000028F1D09D4807
:105850000838006820F0F800216940EAC100994941
:105860000839086014E0002097490860FFF7B0FC91
:10587000054606E0FFF7ACFC401B022801D90320D7
:1058800026E7904808380068C0F340000028F1D1AE
:10589000207800F0080008282CD16069A8B1012008
:1058A0008A490860FFF794FC054606E0FFF790FC84
:1058B000401B022801D903200AE782486C300068A7
:1058C000C0F340000028F1D014E000207F490860B8
:1058D000FFF77EFC054606E0FFF77AFC401B022836
:1058E00001D90320F4E677486C300068C0F340002B
:1058F0000028F1D1207800F00400042870D100279E
:1059000070483830006800F0805090B900BF002027
:1059100000906C483830006840F080506949383158
:1059200008600846006800F08050009000BF00BF8B
:1059300001276748006800F48070B0B964480068C7
:1059400040F4807062490860FFF742FC054606E0BB
:10595000FFF73EFC401B022801D90320B8E65C4853
:10596000006800F480700028F2D000BFA068012811
:1059700008D154486830006840F00100514968314E
:1059800008601DE0A06805280DD14E486830006809
:1059900040F004004B49683108600846006840F058
:1059A000010008600CE047486830006820F0010002
:1059B0004449683108600846006820F00400086027
:1059C00000BFA068A8B1FFF703FC054609E0FFF798
:1059D000FFFB401B41F28831884202D9032077E661
:1059E00026E0384868300068C0F340000028EED058
:1059F00013E0FFF7EDFB054608E0FFF7E9FB401B6E
:105A000041F28831884201D9032061E62D4868308F
:105A10000068C0F340000028EFD1012F07D12948CA
:105A20003830006820F0805026493831086000BFC7
:105A3000A069002845D02348006800F00C00082821
:105A40005DD0A069022845D100201F490866FFF7F4
:105A5000BFFB054606E0FFF7BBFB401B022801D950
:105A6000032035E6174808380068C0F34060002876
:105A7000F1D1D4E907010843616A40EA81110122AA
:105A8000A06AC2EB500041EA00412C20005D41EACF
:105A900000600C49091F086001200B490866FFF7E8
:105AA00097FB054606E0FFF793FB401B022801D950
:105AB00003200DE6034808380068C0F34060002862
:105AC000F1D049E00838024000004742800E4742CA
:105AD00000700040002021490866FFF779FB054669
