:020000040800F2
:100000008053002061020008415A0008B53A0008F8
:100010003D5A00086B0C0008C5790008000000007C
:10002000000000000000000000000000A101000826
:10003000F10F000800000000FD0100083170000809
:100040007B0200087B0200087B0200087B0200089C
:100050007B0200087B0200087B0200087B0200088C
:100060007B0200087B0200087B0200087B0200087C
:100070007B0200087B0200087B0200087B0200086C
:100080007B0200087B0200087B0200087B0200085C
:100090007B0200087B0200087B0200087B0200084C
:1000A0002D7100087B0200087B0200087B0200081B
:1000B0007B0200087B0200087B0200087B0200082C
:1000C0007B0200087B0200087B0200087B0200081C
:1000D0007B020008B97800087B0200087B02000858
:1000E0007B0200087B0200087B0200087B020008FC
:1000F0007B0200087B0200087B0200087B020008EC
:100100007B0200087B020008457100087B020008A2
:100110007B0200087B0200087B0200087B020008CB
:100120007B0200087B020008F10D00087B0200083A
:100130007B0200087B0200087B0200087B020008AB
:100140007B0200087B0200087B0200087B0200089B
:100150007B0200087B0200087B0200087B0200088B
:100160007B0200087B0200087B0200087B0200087B
:100170007B0200087B0200087B02000800000000F0
:100180007B0200087B020008DFF810D000F0D2FBF1
:1001900000480047F98F0008AFF30080805300202B
:1001A0002C4B19680868B0E8F04F80F30988BFF35A
:1001B0006F8F4FF0000080F311887047000000003F
:1001C00008480068006880F308884FF0000080F35A
:1001D000148862B661B6BFF34F8FBFF36F8F00DF35
:1001E00000BF00BF08ED00E0DFF80C00016841F43B
:1001F00070010160704700BF88ED00E0EFF30980F7
:10020000BFF36F8F134B1A681EF0100F08BF20ED5D
:10021000108A20E9F04F106009B44FF0500080F3CD
:100220001188BFF34F8FBFF36F8F09F0F7FE4FF0C8
:10023000000080F3118809BC19680868B0E8F04F25
:100240001EF0100F08BFB0EC108A80F30988BFF3CE
:100250006F8F70471C000020EFF30580704700008F
:100260000648804706480047FEE7FEE7FEE7FEE750
:10027000FEE7FEE7FEE7FEE7FEE7FEE7197100088E
:10028000890100082DE9F05F0546002092469B4653
:1002900088460646814640241BE02846414647469C
:1002A000224600F0A3FA53465A46C01A914110D391
:1002B00011461846224600F016F82D1A67EB010881
:1002C0004F4622460120002100F00DF817EB0009EF
:1002D0004E41201EA4F10104DFDC484631462A4687
:1002E0004346BDE8F09F202A04DB203A00FA02F1E1
:1002F000002070479140C2F1200320FA03F3194314
:1003000090407047202A06DBCB17203A41FA02F0D2
:1003100043EAE07306E041FA02F3D040C2F1200262
:10032000914008431946704740EA01039B0703D0F8
:1003300009E008C9121F08C0042AFAD203E011F824
:10034000013B00F8013B521EF9D27047D2B201E0E6
:1003500000F8012B491EFBD270470022F6E710B5CA
:1003600013460A4604461946FFF7F0FF204610BD23
:100370002DE9FE4F804681EA0300C00F0C46009035
:1003800021F0004123F00045B8EB0200A94105D25D
:100390004046214690461C460B46024623F000404C
:1003A000104347D0270DC7F30A00C3F30A51029048
:1003B000401A019040286BDAC3F3130040F4801B0D
:1003C0000098924620B10023D2EB030A63EB0B0B9B
:1003D00001985946C0F140025046FFF784FF064697
:1003E0000D4650465946019AFFF78CFF10EB080066
:1003F0006141002487EA115284EAE7731A4340D02E
:10040000009A62B3019A012A4FEA075215DC001BD9
:1004100061EB02014FF0004202EA0752CDE90042CF
:10042000001C41F5801132462B4600F035FA03B02E
:10043000BDE8F08F40462146F9E7001B61EB020161
:10044000001C41F5801300185B412018A2F500172D
:1004500047EB030140EAD570B6196D4111E06D0814
:100460004FEA360645EAC0754FEA0752001B61EBBA
:100470000201001C41F5801149084FEA30000019C3
:10048000514132462B4603B0BDE8F04F00F0F5B9BC
:100490000098012240000023D0EB020263EBE073DE
:1004A000009821464FEAE074B8EB000061EB0401CC
:1004B000E9E783F000435BE781F0004158E72DE96D
:1004C000FE4F81EA030404F0004421F0004100944F
:1004D0004FF0000B23F0004350EA01045ED052EAD3
:1004E00003045BD0C3F30A54C1F30A552C44A4F2AD
:1004F000F3340194A0FB0254C1F3130141F48011C1
:10050000C3F3130343F4801301FB024400FB034EC7
:10051000840A970A44EA815447EA8357A4FB076890
:1005200002958D0A05FB07854FEA932C04FB0C54BA
:100530002705029D4FEA065847EA1637B5EB08052E
:100540006EEB070C870E920E47EA811742EA831280
:10055000A7FB0201B6EB0B0164EB00042B0D43EA91
:100560000C335E1844EB1C50DA465146E7FB02019F
:10057000C5F313044FEA0B3343EA14534FEA043232
:10058000019C43EA0603A4F10C040294009CCDE90B
:1005900000B400F081F903B0BDE8F08F00200146FF
:1005A000F9E72DE9F04D81EA030404F0004B21F056
:1005B000004514464FF0000A23F0004150EA0502BE
:1005C00020D054EA01021DD0C5F30A570246C5F3F4
:1005D0001303C1F31300C1F30A5640F4801543F42A
:1005E0008013A7EB0608101BD64608F2FD3873EB04
:1005F000050002D308F1010801E092185B41B8F14F
:10060000000F03DA00200146BDE8F08D00204FF412
:100610008011064684460EE0171B73EB050705D3D1
:10062000121B63EB050306434CEA010C49084FEA31
:10063000300092185B4150EA0107EDD152EA030005
:1006400012D082EA040083EA0501084305D0101B9A
:10065000AB4106D20122002306E000224FF0004306
:1006600002E06FF0010253101AEB06004CEB085148
:1006700010EB0A0041EB0B01BDE8F04D00F0FDB8B6
:100680000EB5C10F80EAE0700844CA07002140F2AD
:1006900033438DE80E000A460B4600F0FDF803B028
:1006A00000BD0EB540F2334102910021CDE90011A9
:1006B0000A460B4600F0F0F803B000BD70B5C1F378
:1006C0000A5201F000450024C1F3130140F2FF3348
:1006D00041F480119A4201DA002070BD40F23343A8
:1006E0009A42A2F2334203DC524200F07FF800E06B
:1006F00090402C43F1D0404270BDC1F30A5210B576
:10070000C1F3130140F2FF3341F480119A4201DA40
:10071000002010BD40F233439A42A2F2334203DC80
:10072000524200F063F810BD904010BD00F000424E
:1007300030F000400AD0C10D01F56071C0F3160021
:1007400042EA0151C20840071143704700200146A8
:100750007047000030B5041E71F1000404DB4FF057
:100760000044404264EB0101141E73F1000405DBF8
:100770001C464FF00043524263EB04038B4208BF18
:10078000824230BD30B5041E71F1000404DB4FF02D
:100790000044404264EB0101141E73F1000405DBC8
:1007A0001C464FF00043524263EB0403994208BFDA
:1007B000904230BD01F0004330B421F0004150EAD6
:1007C000010206D00A0DA2F56072C1F31301002ADE
:1007D00002DC30BC00207047440F44EAC104C10071
:1007E000E01830BC00EBC25000F010B8202A04DB47
:1007F000203A21FA02F00021704721FA02F3D0409A
:10080000C2F1200291400843194670470029A8BF51
:100810007047401C490008BF20F00100704710B429
:10082000B0FA80FC00FA0CF050EA010404BF10BCDE
:10083000704749B1CCF1200421FA04F411FA0CF10B
:1008400018BF012121430843A3EB0C01CB1D4FEA44
:1008500000614FEA102042BF002010BC704700EB3F
:10086000C35010440029A4BF10BC7047401C49006D
:1008700008BF20F0010010BC704710B5141E73F1C2
:10088000000408DA401C41F1000192185B411A4350
:1008900001D120F0010010BD2DE9F04D92469B469C
:1008A00011B1B1FA81F202E0B0FA80F22032904642
:1008B000FFF719FD04460F4640EA0A0041EA0B0122
:1008C00053465A46084313D0114653EA010019D043
:1008D000C8F140025046FFF789FF05460E465046D4
:1008E00059464246FFF7FFFC084305D0012004E0CB
:1008F00020463946BDE8F08D0020054346EAE07603
:100900002C4337430A986305E40AA0EB0800002251
:10091000FD0A44EA47540A3002D500200146E9E7BF
:10092000010510196941DDE9084500196941BDE873
:10093000F04DA2E7064C074D06E0E06840F00103E9
:1009400094E8070098471034AC42F6D3FFF720FC38
:1009500038B80E0858B80E0870B58C1810F8015B3E
:1009600015F0070301D110F8013B2A1106D110F848
:10097000012B03E010F8016B01F8016B5B1EF9D14C
:100980002B0705D40023521E0DD401F8013BFAE7D2
:1009900010F8013BCB1A921C03E013F8015B01F83D
:1009A000015B521EF9D5A142D8D3002070BD0000D2
:1009B00055494A6822F440324A604A6843681A43FB
:1009C0004A600268526822F4807203685A600268C2
:1009D0005368026943EA022203685A600268526857
:1009E00022F0407203685A600268526883681A43B2
:1009F00003685A600268926822F4006203689A6091
:100A000002689268C3681A4303689A603F4B826A1F
:100A10009A4218D00268926822F0706203689A6065
:100A200002689268836A1A4303689A60026892684F
:100A300022F0405203689A6002689268C36A1A43BF
:100A400003689A600BE00268926822F070620368A3
:100A50009A600268926822F0405203689A600268C5
:100A6000926822F0020203689A6002689368027E2C
:100A700043EA420203689A602022125CA2B1026833
:100A8000526842F4006203685A600268526822F4B5
:100A9000604203685A6002685368426A521E43EA21
:100AA000423203685A6005E00268526822F400622C
:100AB00003685A600268D26A22F470020368DA623C
:100AC0000268D36A828B521E43EA02520368DA62DA
:100AD0000268926822F4007203689A600268936860
:100AE00090F8302043EA422203689A6002689268D4
:100AF00022F4806203689A6002689368426943EA5C
:100B0000822203689A607047002301400100000FB1
:100B1000D2ED020A92ED021AB6EE000A00EEC10A08
:100B2000D2ED030A92ED031A00EEC10AD0ED000ADD
:100B300020EE200AD2ED010A92ED021A60EE810A3F
:100B400092ED001AD2ED031A41EE610A90ED011AFE
:100B500000EE810AD2ED010A92ED031A60EE810ADD
:100B600092ED001AD2ED021A41EE210A90ED021A1E
:100B700000EE810AF0EE000A20EE200A81ED000A64
:100B800092ED010AD2ED020A20EE200AD2ED000A0F
:100B900092ED031A00EE810AD0ED000A60EE200A01
:100BA00092ED011AD2ED011AB6EE000A01EE610AC9
:100BB000D2ED031A92ED032AB0EE401A01EEC21AEA
:100BC000D0ED011AB0EE600A01EE210AD2ED020A60
:100BD00092ED031A60EE810A92ED001AD2ED011A2D
:100BE00041EE610A90ED021A00EE810AF0EE000A71
:100BF00020EE200A81ED010A92ED010AD2ED030AEE
:100C000020EE200AD2ED000A92ED021A00EEC10A8F
:100C1000D0ED000A20EE200AD2ED020A92ED031A6E
:100C200060EE810A92ED001AD2ED011A41EE210A1E
:100C300090ED011A00EE810A92ED011AD2ED011A2F
:100C4000F6EE000A41EE610A92ED021AD2ED021AA6
:100C500041EE610A90ED021A00EE810AF0EE000A00
:100C600020EE200A81ED020A704700BFFEE7000077
:100C700000B52DED108B85B0B0EE408AF0EE608AA5
:100C8000B0EE419AF0EE619AB0EE42AAF0EE62AA9E
:100C9000B0EE43BAF0EE63BA534890ED000B53EC5C
:100CA000102B51EC1B0BFFF704FC41EC1D0B51EC1E
:100CB000180B81F0004153EC192BCDE902019DED99
:100CC000020B51EC100BFFF7F4FB41EC1F0B53EC44
:100CD0001A2BFFF7EEFB41EC1E0B53EC1D2BFFF71D
:100CE000E8FB41EC1C0BFFF7E9FC404948613E483A
:100CF00090ED000B53EC102B51EC1B0BFFF7D9FBC5
:100D000041EC1D0B53EC192B51EC180BFFF7D1FBE9
:100D100041EC1F0B53EC1A2BFFF7CBFB41EC1E0BE6
:100D200053EC1D2BFFF7C5FB41EC1C0BFFF7C6FC7A
:100D30002E4948632C4890ED000B53EC102B51ECDE
:100D40001B0BFFF7B6FB41EC1D0B53EC192B51ECC1
:100D5000180BFFF70DFB41EC1F0B53EC1A2BFFF7A1
:100D6000A8FB41EC1E0B53EC1D2BFFF7A2FB41EC43
:100D70001C0BFFF7A3FC1D4948651B4890ED000BB9
:100D800053EC102B51EC1B0BFFF793FB41EC1C0BAE
:100D900051EC180B81F0004141EC1F0B53EC192B67
:100DA000FFF7E6FA41EC1E0B53EC1A2BFFF781FB21
:100DB00041EC1D0B53EC1C2BFFF77BFBCDE9000135
:100DC0009DED000B51EC100B81F00041CDE90201CB
:100DD0009DED020B51EC100BFFF770FC03494867C7
:100DE00005B0BDEC108B00BDE00000209045002058
:100DF00010B5024800F05CFB10BD0000F8070020B1
:100E00000146087810381823B0FBF3F20848805CDC
:100E1000C865032A05D908686FF30900001D8865B5
:100E200003E008686FF309008865886D704700006B
:100E3000D0A50008014600208A6A8B69CBB932B17F
:100E4000012A0DD0022A03D0032A10D10EE000BFE0
:100E5000CB6A03F08073B3F1807F00D1012007E0FB
:100E6000CB6AB3F1C07F00D1012001E000E000BFF8
:100E700034E08B69B3F5005F1AD132B1012A07D093
:100E8000022A03D0032A11D10AE000BF01200EE09C
:100E9000CB6A03F08073B3F1807F00D1012006E0BC
:100EA000CB6AB3F1C07F00D1012000E000BF15E0A4
:100EB00032B1012A05D0022A04D0032A0CD103E062
:100EC00000BF00BF012008E0CB6A03F08073B3F1DC
:100ED000807F00D1012000E000BF00BF704730B527
:100EE0000468246824F4802405682C600468636026
:100EF0008468402C04D10468A2600468E16003E0C7
:100F00000468A1600468E26030BD000008B50848CC
:100F100040680090074900980968884204D2064852
:100F20000068401C0449086002490098086008BD38
:100F3000001000E0A00100209C01002010B52DED64
:100F4000028B82B004460E484068019020680199E7
:100F5000081A00EE100AF8EE400A0A4890ED000A5E
:100F6000B8EE400A80EE801AB0EE418A0198206007
:100F7000FFF7CCFFB0EE480A02B0BDEC028B10BD0B
:100F8000001000E0900100201249096841F08071D2
:100F9000104A11600021104A51601146096841F061
:100FA000010111600D4941430D4A11601146096864
:100FB0004FF47A72B1FBF2F10A4A116008490968EC
:100FC000064AB1FBF2F1084A11600021074A11609C
:100FD00070470000FCED00E0001000E040420F0010
:100FE0009001002094010020980100209C01002025
:100FF0007047000010B5034C606161636265636710
:1010000010BD000090450020D2ED020A92ED021AB8
:10101000B6EE000A00EEC10AD2ED030A92ED031A01
:1010200000EEC10AD0ED000A20EE200AD2ED010A3E
:1010300092ED021A60EE810A92ED001AD2ED031AC7
:1010400041EE210A90ED011A00EE810AD2ED010A6B
:1010500092ED031A60EE810A92ED001AD2ED021AA7
:1010600041EE610A90ED021A00EE810AF0EE000AEC
:1010700020EE200A81ED000A92ED010AD2ED020A6B
:1010800020EE200AD2ED000A92ED031A00EEC10A0A
:10109000D0ED000A60EE200A92ED011AD2ED011A9D
:1010A000B6EE000A01EE610AD2ED031A92ED032AB0
:1010B000B0EE401A01EEC21AD0ED011AB0EE600A8D
:1010C00001EE210AD2ED020A92ED031A60EE810AC6
:1010D00092ED001AD2ED011A41EE210A90ED021AAA
:1010E00000EE810AF0EE000A20EE200A81ED010AEE
:1010F00092ED010AD2ED030A20EE200AD2ED000A99
:1011000092ED021A00EE810AD0ED000A20EE200ACC
:10111000D2ED020A92ED031A60EE810A92ED001AF6
:10112000D2ED011A41EE610A90ED011A00EE810A3A
:1011300092ED011AD2ED011AF6EE000A41EE610AB3
:1011400092ED021AD2ED021A41EE610A90ED021AF6
:1011500000EE810AF0EE000A20EE200A81ED020A7C
:10116000704772B600BFFEE738B502460020009017
:1011700000BF92F83C00012801D1022038BD0120B7
:1011800082F83C0000BF0868092816D91068C068BA
:101190000C780A3C04EB44050724AC40A0431468D7
:1011A000E0600C780A3C04EB44048868A0401468B2
:1011B000E46820431468E06013E0106800690C786C
:1011C00004EB44050724AC40A043146820610C786C
:1011D00004EB44048868A040146824692043146820
:1011E00020614868072817D21068406B0C79641E8C
:1011F00004EB84051F24AC40A04314686063088896
:1012000080B20C79641E04EB8404A0401468646B03
:1012100020431468606331E048680D2817D21068D5
:10122000006B0C79E41F04EB84051F24AC40A04341
:1012300014682063088880B20C79E41F04EB8404EE
:10124000A0401468246B20431468206316E01068E3
:10125000C06A0C790D3C04EB84051F24AC40A0430C
:101260001468E062088880B20C790D3C04EB8404B9
:10127000A0401468E46A20431468E062194B1A4CD9
:101280001068A04206D10868122803D1586840F4BB
:1012900080005860144C1068A0421CD108681028C7
:1012A00002D00868112816D1586840F40000586030
:1012B000086810280FD10D4800680D4CB0FBF4F001
:1012C00000EB80004000009002E00098401E00907B
:1012D00000980028F9D100BF002082F83C0000BF30
:1012E00000BF4BE700230140002001401800002010
:1012F00040420F0070B5044600250CB9012070BDB6
:101300001549A06A884200D000BF206C30B9204641
:1013100000F024F80020606484F83C00206C00F0A9
:10132000100088B9206C20F4885040F0020020643E
:101330002046FFF73DFB00206064206C20F0020097
:1013400040F00100206400E0012500BF002084F887
:101350003C0000BF2846D2E70100000F10B586B060
:101360000446142101A8FEF7F8FF194920688842B5
:101370002BD100BF002000901648006840F4807018
:10138000144908600846006800F48070009000BFAF
:1013900000BF00BF002000900E481438006840F0E5
:1013A00001000C49143908600846006800F001008B
:1013B000009000BF00BF0120019003200290002098
:1013C000039001A9044800F051FA06B010BD0000D6
:1013D00000200140443802400000024070B504463D
:1013E000A56D00F043FB064694F83500022808D0AE
:1013F0008020606500BF002084F8340000BF012019
:1014000070BD2068006820F0160021680860206820
:10141000406920F0800021684861206C08B9A06C08
:1014200028B12068006820F0080021680860206862
:10143000006820F001002168086010E000F016FB51
:10144000801B05280BD920206065032084F8350017
:1014500000BF002084F8340000BF0320D0E72068DC
:10146000006800F001000028E8D194F85C103F20EB
:101470008840A860012084F8350000BF002084F86F
:10148000340000BF00BFBBE7014691F835000228D9
:1014900003D08020486501207047052081F8350081
:1014A0000868006820F001000A6810600020F3E777
:1014B000F8B50446002000908C4800684FF416519F
:1014C000B0FBF1F7A56D2E6894F85C1008208840F9
:1014D000304098B12068006800F0040070B12068C6
:1014E000006820F004002168086094F85C1008206F
:1014F0008840A860606D40F00100606594F85C1061
:1015000001208840304068B12068406900F08000C8
:1015100040B194F85C1001208840A860606D40F0F4
:101520000200606594F85C1004208840304068B187
:101530002068006800F0020040B194F85C100420BC
:101540008840A860606D40F00400606594F85C100D
:1015500010208840304078B32068006800F0080010
:1015600050B394F85C1010208840A8602068006890
:1015700000F4802080B12068006800F4002028B9C1
:10158000206CC8B12046216C884715E0A06C98B14A
:101590002046A16C88470FE02068006800F4807046
:1015A00028B92068006820F0080021680860206CD5
:1015B00010B12046216C884794F85C1020208840A8
:1015C0003040002865D02068006800F01000002836
:1015D0005FD094F85C1020208840A86094F8350013
:1015E000052828D12068006820F0160021680860CE
:1015F0002068406920F0800021684861206C08B9AB
:10160000A06C28B12068006820F0080021680860FC
:1016100094F85C103F208840A860012084F83500D1
:1016200000BF002084F8340000BF206D10B12046B8
:10163000216D8847F8BD2068006800F4802080B1E3
:101640002068006800F4002028B9606C10B12046C2
:10165000616C88471DE0E06BD8B12046E16B88479C
:1016600017E02068006800F4807068B9206800689E
:1016700020F0100021680860012084F8350000BFC8
:10168000002084F8340000BFE06B10B12046E16B0D
:101690008847606D38B3606D00F00100F0B105203F
:1016A00084F835002068006820F001002168086097
:1016B00000BF0098401C0090B84200D905E02068A7
:1016C000006800F001000028F3D100BF012084F879
:1016D000350000BF002084F8340000BFE06C10B17A
:1016E0002046E16C884700BFA4E7000018000020F6
:1016F0002DE9F0410446002500F0B8F9074614B979
:101700000120BDE8F081606A00B100BF022084F8CA
:10171000350000BF002084F8340000BF2068006856
:1017200020F00100216808600AE000F09FF9C01B6A
:10173000052805D920206065032084F83500E0E7FE
:101740002068006800F001000028EED120680568DC
:1017500021480540D4E901010843E16808432169B3
:10176000084361690843A1690843E1690843216AA4
:1017700008430543606A042803D1D4E90B010843F8
:101780000543206805602068456925F00705606A03
:101790000543606A04280DD1A06A0543E06A48B198
:1017A0002046FFF747FB28B140206065012084F800
:1017B0003500A6E7206845612046FFF721FB064675
:1017C00094F85C103F208840B060002060650120E4
:1017D00084F83500002094E73F8010F02DE9F041B7
:1017E00004460D4616461F464FF0000800BF94F809
:1017F0003400012802D10220BDE8F081012084F8E4
:10180000340000BF94F83500012811D1022084F87B
:101810003500002060653B46324629462046FFF7EA
:101820005EFB2068006840F001002168086006E067
:1018300000BF002084F8340000BF4FF0020840468B
:10184000DAE7000070B5044600F010F906462546B8
:10185000681C10B104480078054400BF00F006F988
:10186000801BA842FAD370BD14000020F8B50246D0
:101870000B460025002400200021D6E0012606FAB0
:1018800001F51E6806EA0504AC4274D11E7906F023
:101890000306012E04D01E7906F00306022E13D192
:1018A00090684F000326BE40B0434F00DE68BE4044
:1018B00030439060506801268E40B0431E79C6F3D5
:1018C00000168E40304350601E7906F00306032E4A
:1018D00009D0D0684F000326BE40B0434F009E6839
:1018E000BE403043D0601E7906F00306022E13D1AD
:1018F000CF0802F1200656F827004E07F70E0F26F4
:10190000BE40B0434F07FF0E1E69BE403043CF08B4
:1019100002F1200646F8270010684F000326BE405B
:10192000B0431E7906F003064F00BE4030431060FE
:101930005E6806F44036002E76D000BF0026009682
:101940003C4E366846F480463A4F3E603E46366826
:1019500006F48046009600BF00BF374E8F0856F849
:1019600027008E07370F0F26BE40B043334EB242DA
:1019700002D1002624E057E0314EB24201D10126C7
:101980001EE0304EB24201D1022619E02E4EB24284
:1019900001D1032614E02D4EB24201D104260FE0FE
:1019A0002B4EB24201D105260AE02A4EB24201D1A5
:1019B000062605E0284EB24201D1072600E008269F
:1019C0008F073F0FBE4030431B4E8F0846F827005D
:1019D000224E3068A0435E6806F4801606B12043AC
:1019E0001E4E3060361D3068A0435E6806F4001657
:1019F00006B12043194E361D3060184E361F306830
:101A0000A0435E6806F4003606B12043134E361F2D
:101A10003060361F3068A0435E6806F4803606B139
:101A200020430E4E083E3060491C1029FFF426AFBB
:101A3000F8BD000044380240083801400000024070
:101A40000004024000080240000C02400010024066
:101A50000014024000180240001C0240083C0140F3
:101A60000AB1816101E00B0483617047014800689D
:101A7000704700000C00002070B504460CB901202E
:101A800070BD94F83D0028B9002084F83C00204641
:101A900000F010FB242084F83D002068006820F04E
:101AA0000100216808602068006840F40040216857
:101AB00008602068006820F400402168086000F099
:101AC00071FD05465C496068884206D85B488542DE
:101AD00001D2012007E0002005E05948854201D2EB
:101AE000012000E00020012800D1C9E75548B5FBDE
:101AF000F0F62068406820F03F00304321684860DD
:101B00004D496068884201D8701C07E04FF4967018
:101B100070434FF47A71B0FBF1F0401C2168096A00
:101B200021F03F0108432168086243496068884208
:101B300014D8681E61684900B0FBF1F0401CC0F386
:101B40000B00042801D204203DE0681E61684900B2
:101B5000B0FBF1F0401CC0F30B0034E0A06838B9D2
:101B6000681E616801EB4101B0FBF1F0401C0AE026
:101B7000681E616801EBC10202EB0111B0FBF1F0DC
:101B8000401C40F48040C0F30B0008B901201AE06B
:101B9000A06848B9681E616801EB4101B0FBF1F033
:101BA000401CC0F30B000CE0681E616801EBC10231
:101BB00002EB0111B0FBF1F0401CC0F30B0040F44C
:101BC000804040F400402168C9694CF6FF7291439F
:101BD00008432168C861D4E90701084321680968FE
:101BE00021F0C001084321680860D4E903100843CC
:101BF0002168896848F2FF32914308432168886070
:101C0000D4E9050108432168C96821F0FF010843B0
:101C10002168C8602068006840F001002168086001
:101C200000202064202084F83D000020206384F8F8
:101C30003E0000BF24E70000A086010080841E0053
:101C400000093D0040420F002DE9FC5F04460F46AD
:101C500090469946DDE90CAB0E9EFFF707FF05465F
:101C600094F83D00202870D119230122B54920465F
:101C7000009502F094F810B10220BDE8FC9F00BF6F
:101C800094F83C00012801D10220F6E7012084F8F5
:101C90003C0000BF2068006800F0010028B92068FF
:101CA000006840F00100216808602068006820F4A6
:101CB000006021680860222084F83D00402084F8FC
:101CC0003E0000202064C4F824A0A4F82AB0608D4F
:101CD00020859D48E0624B46424639462046CDE984
:101CE000006501F009FF08B10120C6E7208D88B921
:101CF00000BF002001902068406901902068806941
:101D0000019000BF00BF2068006840F400702168A7
:101D1000086040E0208D012818D12068006820F478
:101D200080602168086000BF002001902068406941
:101D3000019020688069019000BF00BF20680068A2
:101D400040F400702168086025E0F8E0208D02284A
:101D500016D12068006820F480602168086020683F
:101D6000006840F400602168086000BF0020019016
:101D700020684069019020688069019000BF0AE0F6
:101D800000BF0020019020684069019020688069B0
:101D9000019000BF00BFC3E0208D03287ED8208DB6
:101DA000012815D12A463146204602F0D4F808B160
:101DB000012062E720680069616A0870606A401C5F
:101DC0006062208D401E2085608D401E6085A7E0EA
:101DD000208D02282AD1334600225C4920460095F6
:101DE00001F0DDFF08B1012047E72068006840F4FA
:101DF00000702168086020680069616A0870606A84
:101E0000401C6062208D401E2085608D401E6085D4
:101E100020680069616A0870606A401C6062208DF9
:101E2000401E2085608D401E608579E0334600228B
:101E300046492046009501F0B2FF08B101201CE799
:101E40002068006820F480602168086020680069CC
:101E5000616A0870606A401C6062208D401E2085A7
:101E6000608D401E6085334600223849204600952B
:101E700001F095FF08B10120FFE62068006840F4FA
:101E800000702168086020680069616A0870606AF3
:101E9000401C6062208D401E208500E010E0608DB7
:101EA000401E608520680069616A0870606A401C95
:101EB0006062208D401E2085608D401E60852FE071
:101EC0002A463146204602F046F808B10120D4E601
:101ED00020680069616A0870606A401C6062208D39
:101EE000401E2085608D401E608520684069C0F3DB
:101EF0008000A8B1208D032805D12068006820F457
:101F000080602168086020680069616A0870606A02
:101F1000401C6062208D401E2085608D401E6085C3
:101F2000208D00287FF438AF202084F83D00002069
:101F300084F83E0000BF84F83C0000BF9DE602200C
:101F40009BE60000020010000000FFFF04000100FB
:101F50002DE9FC5F04460F4690469946DDE90CAB3F
:101F60000E9EFFF783FD054694F83D0020287DD1A5
:101F7000192301224D492046009501F010FF10B1B0
:101F80000220BDE8FC9F00BF94F83C00012801D16D
:101F90000220F6E7012084F83C0000BF20680068BA
:101FA00000F0010028B92068006840F001002168B5
:101FB00008602068006820F4006021680860212023
:101FC00084F83D00402084F83E0000202064C4F8DE
:101FD00024A0A4F82AB0608D20853548E0624B46E5
:101FE000424639462046CDE9006501F035FE08B18C
:101FF0000120C6E731E02A463146204601F0F0FFD5
:1020000050B1206C042805D12068006840F40070AD
:10201000216808600120B4E7606A007821680861DF
:10202000606A401C6062208D401E2085608D401ECD
:10203000608520684069C0F3800070B1208D60B178
:10204000606A007821680861606A401C6062208DC7
:10205000401E2085608D401E6085208D0028CAD1DD
:102060002A463146204601F067FE00E01CE050B1F0
:10207000206C042805D12068006840F400702168B5
:10208000086001207DE72068006840F40070216846
:102090000860202084F83D00002084F83E0000BF46
:1020A00084F83C0000BF6CE702206AE702001000E1
:1020B0000000FFFF10B586B00446142101A8FEF70A
:1020C0004CF93549206888422FD100BF002000908C
:1020D0003248006840F00200304908600846006855
:1020E00000F00200009000BF00BFC020019012204D
:1020F000029000200390032004900420059001A981
:102100002748FFF7B3FB00BF0020009023481030A2
:10211000006840F40010214910310860084600684A
:1021200000F40010009000BF34E01E49206888428F
:1021300030D100BF002000901848006840F0020035
:10214000164908600846006800F00200009000BFD1
:1021500000BF4FF4406001901220029000200390D5
:10216000032004900420059001A90D48FFF77EFB91
:1021700000BF0020009009481030006840F4800043
:102180000649103108600846006800F4800000909D
:1021900000BF00BF06B010BD005400403038024000
:1021A00000040240005800400348006803490978D1
:1021B00008440149086070470C000020140000200A
:1021C00010B50D48006840F400700B4908600846DF
:1021D000006840F4806008600846006840F4807041
:1021E0000860032000F0E0F80F2000F007F800F08E
:1021F0005FF8002010BD0000003C02402DE9F041D6
:1022000088B004460027B84600BF0020019023484C
:10221000006840F00800214908600846006800F0A6
:102220000800019000BF00BF02A903A800F092F9C6
:10223000069F1FB900F0B6F9054602E000F0B2F9BA
:1022400045001748B5FBF0F0A0F101081548164904
:10225000086040F2E7311448C160C0F804800021F2
:1022600001618160816100F0BFFC064696B90E48AD
:1022700000F028FD06466EB9322000F043F8102C1D
:1022800007D200222146322000F050F807480460AF
:1022900000E00126304608B0BDE8F0814038024039
:1022A00040420F00000C00405808002010000020A1
:1022B00008B500BF002000901148006840F480403D
:1022C0000F4908600846006800F48040009000BF95
:1022D00000BF00BF00200090081F006840F0805041
:1022E000091F08600846006800F08050009000BF99
:1022F00000BF00220F21901E00F018F808BD00005A
:10230000443802400146084600280DDB00BF00BFEC
:1023100000F01F0301229A4043099B0003F1E023D0
:10232000C3F8002100BF00BF00BF70472DE9F05F78
:1023300080460D461646002705F072FB07463946D3
:102340002A46334601F00700C0F1070ABAF1040F2C
:1023500002D94FF0040A01E0C0F1070AD14600F1AA
:10236000040ABAF1070F02D24FF0000A01E0A0F10F
:10237000030AD4464FF0010A0AFA09FAAAF1010A3F
:102380000AEA020A0AFA0CFA4FF0010B0BFA0CFBEC
:10239000ABF1010B0BEA030B4AEA0B042146404662
:1023A00005F046FBBDE8F09F00BF00F00702064BBA
:1023B00019684FF6FF031940044B0B4343EA02210F
:1023C000014B196000BF70470CED00E00000FA05FA
:1023D00070B504460D460CB9012070BD5848006820
:1023E00000F00700A84209D255490D700846006860
:1023F00000F00700A84201D00120EEE7207800F0AD
:10240000020002281DD1207800F00400042805D124
:102410004C48006840F4E0504A490860207800F0D9
:102420000800082805D14748006840F46040454945
:1024300008604448006820F0F000A1680843414962
:102440000860207800F00100A8B36068012807D177
:102450003C4808380068C0F34040B8B90120BCE7E8
:102460006068022802D06068032807D13548083820
:102470000068C0F3406048B90120AEE73148083831
:102480000068C0F3400008B90120A6E72D480068A5
:1024900020F00300616808432A490860FFF7E6FA64
:1024A000064609E0FFF7E2FA801B41F288318842D4
:1024B00002D9032091E707E02248006800F00C00F1
:1024C0006168B0EB810FEDD11D48006800F0070096
:1024D000A84209D91A490D700846006800F00700A3
:1024E000A84201D0012078E7207800F004000428F9
:1024F00007D11448006820F4E050E168084311490E
:102500000860207800F00800082808D10D4800680D
:1025100020F46040216940EAC1000A49086000F0E7
:1025200061F808490968C1F30311074A515CC840C2
:102530000649086006480068FFF760FE00204CE787
:10254000003C024008380240D8A5000818000020CE
:10255000100000200F2202600D4A126802F00302F0
:1025600042600B4A126802F0F0028260084A126868
:1025700002F4E052C260064A126802F46042D208D5
:102580000261044A126802F007020A607047000004
:1025900008380240003C02400148006870470000D3
:1025A0001800002000B5FFF7F7FF04490968C1F3E0
:1025B0008221034A515CC84000BD00000838024037
:1025C000E8A5000800B5FFF7E7FF04490968C1F373
:1025D0004231034A515CC84000BD00000838024047
:1025E000E8A500082DE9F047002400250026A146B3
:1025F0002548006800F00C0020B1042805D0082808
:102600003AD105E0DFF8849039E0DFF8849036E0D5
:102610001D48001F006800F03F041B48001F0068B1
:1026200000F4800078B11A481749091F0968C1F3FE
:102630008811A0FB01700146224600233846FDF7B1
:1026400021FE05460EE011480F49091F0968C1F334
:102650008811A0FB01700146224600233846FDF791
:1026600011FE05460848001F0068C0F30140401CE9
:102670004600B5FBF6F902E0DFF8109000BF00BF9E
:102680004846BDE8F0870000083802400024F40006
:1026900000127A00F8B504460CB90120F8BD207884
:1026A00000F00100002874D0F948006800F00C0028
:1026B00004280DD0F648006800F00C00082813D15B
:1026C000F348001F006800F48000B0F5800F0BD1C4
:1026D000EF4808380068C0F34040002859D06068CF
:1026E000002856D10120D9E700BF6068B0F5803FCF
:1026F00008D1E7480838006840F48030E4490839D8
:1027000008601EE06068B0F5A02F0DD1E0480838E1
:10271000006840F48020DE490839086008460068F7
:1027200040F4803008600CE0D9480838006820F494
:102730008030D749083908600846006820F48020B6
:10274000086000BF606890B1FFF790F9054606E0A9
:10275000FFF78CF9401B642801D903209EE7CC4881
:1027600008380068C0F340400028F1D011E0FFF7BE
:102770007DF9054606E0FFF779F9401B642801D989
:1027800003208BE7C24808380068C0F340400028A7
:10279000F1D1207800F0020002285FD1BC48006827
:1027A00000F00C0058B1BA48006800F00C0008288E
:1027B0001CD1B748001F006800F48000B0B9B448CD
:1027C00008380068C0F3400020B1E068012801D05B
:1027D000012063E7AE480838006820F0F80021695E
:1027E00040EAC100AA490839086037E0E06800B350
:1027F0000120A8490860FFF739F9054606E0FFF710
:1028000035F9401B022801D9032047E7A0480838C2
:102810000068C0F340000028F1D09D4808380068E7
:1028200020F0F800216940EAC100994908390860A0
:1028300014E0002097490860FFF718F9054606E004
:10284000FFF714F9401B022801D9032026E790481E
:1028500008380068C0F340000028F1D1207800F06B
:10286000080008282CD16069A8B101208A490860B5
:10287000FFF7FCF8054606E0FFF7F8F8401B0228D2
:1028800001D903200AE782486C300068C0F3400099
:102890000028F1D014E000207F490860FFF7E6F837
:1028A000054606E0FFF7E2F8401B022801D90320A5
:1028B000F4E677486C300068C0F340000028F1D19E
:1028C000207800F00400042870D1002770483830C8
:1028D000006800F0805090B900BF002000906C4864
:1028E0003830006840F08050694938310860084647
:1028F000006800F08050009000BF00BF01276748CB
:10290000006800F48070B0B96448006840F48070DA
:1029100062490860FFF7AAF8054606E0FFF7A6F847
:10292000401B022801D90320B8E65C48006800F487
:1029300080700028F2D000BFA068012808D1544858
:102940006830006840F001005149683108601DE0BE
:10295000A06805280DD14E486830006840F004009A
:102960004B49683108600846006840F00100086083
:102970000CE047486830006820F0010044496831A5
:1029800008600846006820F00400086000BFA068E6
:10299000A8B1FFF76BF8054609E0FFF767F8401BA1
:1029A00041F28831884202D9032077E626E0384890
:1029B00068300068C0F340000028EED013E0FFF755
:1029C00055F8054608E0FFF751F8401B41F2883101
:1029D000884201D9032061E62D4868300068C0F3C1
:1029E00040000028EFD1012F07D129483830006876
:1029F00020F0805026493831086000BFA0690028C7
:102A000045D02348006800F00C0008285DD0A0697C
:102A1000022845D100201F490866FFF727F8054620
:102A200006E0FFF723F8401B022801D9032035E612
:102A3000174808380068C0F340600028F1D1D4E995
:102A400007010843616A40EA81110122A06AC2EBD2
:102A5000500041EA00412C20005D41EA00600C4931
:102A6000091F086001200B490866FEF7FFFF0546B5
:102A700006E0FEF7FBFF401B022801D903200DE60C
:102A8000034808380068C0F340600028F1D049E0EE
:102A90000838024000004742800E47420070004064
:102AA000002021490866FEF7E1FF054606E0FEF733
:102AB000DDFF401B022801D90320EFE51B48006819
:102AC000C0F340600028F2D12CE0A069012800D1B9
:102AD000E4E51648001D0668A069012820D006F428
:102AE0008001E06981421BD106F03F01206A8142EA
:102AF00016D147F6C0703040616AB0EB811F0FD12C
:102B000006F440310122A06AC2EB5000B1EB004F45
:102B100006D106F070612C20005DB1EB006F01D092
:102B20000120BBE50020B9E5000047420038024023
:102B30007047704730B502460B4600BF92F83C0024
:102B4000012801D1022030BD012082F83C0000BFE5
:102B5000022082F83D00106844681068816824F003
:102B600070041868044310684460184D1068A84247
:102B70001BD01068B0F1804F17D0154D1068A842D7
:102B800013D0144D1068A8420FD0134D1068A842FE
:102B90000BD0124D1068A84207D0114D1068A84202
:102BA00003D0104D1068A84205D121F0800158686B
:102BB000014310688160012082F83D0000BF0020C1
:102BC00082F83C0000BF00BFBDE7000000000140EC
:102BD0000004004000080040000C004000040140D8
:102BE000004001400018004010B504460CB9012017
:102BF00010BD94F83D0028B9002084F83C00204620
:102C000000F026F8022084F83D00211D206804F021
:102C1000A1FA012084F8460000BF84F83E0001219B
:102C20003F200155402001554120015500BF00BF04
:102C3000012084F8420043200155442001554520DD
:102C4000015500BF012084F83D000020D0E70000BE
:102C500038B504462068B0F1804F0FD100BF002086
:102C600000901648006840F00100144908600846CA
:102C7000006800F00100009000BF1DE010492068CE
:102C8000884219D100BF002000900C48001D006848
:102C900040F480300949091D08600846006800F4C6
:102CA0008030009000BF00BF002205211820FFF7F0
:102CB0003DFB1820FFF726FB38BD000040380240DE
:102CC00000400140014691F83D00012801D001205B
:102CD0007047022081F83D000868C06840F001009C
:102CE0000B68D8601A4B086898421BD00868B0F18E
:102CF000804F17D0174B0868984213D0164B0868BE
:102D000098420FD0154B086898420BD0144B0868B6
:102D1000984207D0134B0868984203D0124B0868BA
:102D200098420CD10868806800F00702062A0CD08F
:102D30000868006840F001000B68186005E008684A
:102D4000006840F001000B6818600020C0E7000038
:102D5000000001400004004000080040000C00405A
:102D60000004014000400140001800402DE9F041FE
:102D700004460D46002700BF94F83C00012802D10C
:102D80000220BDE8F081012084F83C0000BF022051
:102D900084F83D002068866826F0770626F47F4692
:102DA000206886602868502833D00CDC202850D05A
:102DB00004DC00284BD0102851D149E0302849D0FC
:102DC00040284CD139E060282DD0702807D0B0F5CC
:102DD000805F03D0B0F5005F41D10DE041E0D5E95F
:102DE00002136A68206804F03AFA2068866846F0A0
:102DF00077062068866034E0D5E902136A682068A7
:102E000004F02DFA2068806840F4804021688860D2
:102E100027E0EA686968206804F012FB5021206806
:102E200004F028FA1DE0EA686968206804F01BFBDA
:102E30006021206804F01EFA13E0EA6869682068DF
:102E400004F0FEFA4021206804F014FA09E000BF03
:102E500000BF00BF2968206804F00CFA01E00127D8
:102E600000BF00BF012084F83D0000BF002084F8AF
:102E70003C0000BF384684E72DE9F04104460D468A
:102E800014B90120BDE8F08194F83D0028B9002074
:102E900084F83C00204600F053F8022084F83D00FE
:102EA0002068806844F20701884321688860211DFA
:102EB000206804F04FF92068D0F8088020688669FF
:102EC0002068076A286840EA080840F20330864311
:102ED000A969A86840EA0120064340F60C408643F1
:102EE0004FF2F0008643E969E86840EA01200643B2
:102EF00028690001296A40EA0130064327F02207C9
:102F000027F088076969686840EA0110074320686C
:102F1000C0F808802068866120680762012084F874
:102F2000460084F83E0001213F200155012084F82D
:102F3000420043200155012084F83D000020A1E714
:102F400010B586B00446142101A8FDF706FA6F49B2
:102F50002068884238D100BF002000906C4800688B
:102F600040F001006A4908600846006800F001006E
:102F7000009000BF00BF00BF0020009064481438DC
:102F8000006840F010006249143908600846006883
:102F900000F01000009000BF00BF4FF420600190CF
:102FA000022002900020039004900120059001A9C6
:102FB0005848FEF75BFC002205211820FFF7B6F900
:102FC0001820FFF79FF99FE053492068884231D1CC
:102FD00000BF002000904E48001F006840F0020033
:102FE0004B49091F08600846006800F00200009085
:102FF00000BF00BF00BF00200090454814380068A3
:1030000040F001004249143908600846006800F0A9
:103010000100009000BF00BFC0200190022002907C
:103020000020039004900220059001A93B48FEF780
:103030001DFC69E03A492068884232D100BF002077
:1030400000903348001F006840F004003049091F19
:1030500008600846006800F00400009000BF00BF50
:1030600000BF002000902A481438006840F0080093
:103070002749143908600846006800F008000090ED
:1030800000BF00BF4FF4405001900220029000208A
:10309000039004900220059001A92248FEF7E6FB68
:1030A00032E02149206888422ED100BF00200090E4
:1030B0001748006840F0020015490860084600689B
:1030C00000F00200009000BF00BF00BF0020009091
:1030D0000F481438006840F004000D4914390860A6
:1030E0000846006800F00400009000BF00BFC02048
:1030F000019002200290002003900490032005908C
:1031000001A90A48FEF7B2FB06B010BD000001405D
:103110004438024000100240000400400000024019
:1031200000080040000C024000040140000802407A
:103130002DE9F04304460D4694F83E603F20075DBC
:1031400094F84280432010F804906DB9012E02D10A
:10315000B8F1010F02D00120BDE8F083022084F80D
:103160003E0084F8420025E0042D0CD1012F02D14D
:10317000B9F1010F01D00120EEE702213F200155F6
:103180004320015516E0012E07D1012F05D1B8F1DA
:10319000010F02D1B9F1010F01D00120DCE70220BB
:1031A00084F83E0002213F200155022084F84200AD
:1031B0004320015515B1042D0CD105E00122002159
:1031C000206804F03BF810E001220421206804F09C
:1031D00035F80AE001220021206804F02FF80122CE
:1031E0000421206804F02AF800BF00BF20680068AE
:1031F00040F00100216808600020ADE7704770B51D
:1032000004462068C5682068066906F002000228A6
:1032100019D105F00200022815D1401F216808616C
:10322000012020772068806900F0030018B1204653
:10323000FFF7E4FF05E0204600F0C6F8204600F066
:103240007AF90020207706F00400042819D105F04F
:103250000400042815D1C0432168086102202077AA
:103260002068806900F4407018B12046FFF7C6FF5F
:1032700005E0204600F0A8F8204600F05CF90020A8
:10328000207706F00800082819D105F00800082862
:1032900015D1C04321680861042020772068C069E7
:1032A00000F0030018B12046FFF7A8FF05E0204614
:1032B00000F08AF8204600F03EF90020207706F062
:1032C0001000102819D105F01000102815D1C043A6
:1032D00021680861082020772068C06900F44070E8
:1032E00018B12046FFF78AFF05E0204600F06CF891
:1032F000204600F020F90020207706F0010048B1B8
:1033000005F0010030B16FF001002168086120462E
:1033100000F098F906F08000802809D105F08000BF
:10332000802805D1C043216808612046FFF700FCD2
:1033300006F04000402809D105F04000402805D1A2
:10334000C04321680861204600F090F906F0200093
:10335000202809D105F02000202805D1C04321688C
:1033600008612046FFF7E5FB70BD000010B586B090
:103370000446142101A8FCF7F0FF2068B0F1804F4B
:103380001CD100BF002000900D48006840F00100F3
:103390000B4908600846006800F00100009000BF7B
:1033A00000BF2E2001900220029000200390049084
:1033B0000120059001A90348FEF758FA06B010BD98
:1033C000303802400000024070472DE9F0410446C9
:1033D0000D461646002700BF94F83C00012802D194
:1033E0000220BDE8F081012084F83C0000BF36B126
:1033F000042E1BD0082E31D00C2E5ED145E029467C
:10340000206803F041FF2068806940F008002168CF
:1034100088612068806920F0040021688861206844
:103420008069296908432168886148E02946206845
:1034300003F062FF2068806940F4006021688861C1
:103440002068806920F48060216888612068806934
:10345000296940EA01202168886130E02946206816
:1034600003F088FF2068C06940F008002168C86147
:103470002068C06920F004002168C8612068C06924
:10348000296908432168C86119E02946206803F0CA
:10349000ADFF2068C06940F400602168C861206801
:1034A000C06920F480602168C8612068C06929690A
:1034B00040EA01202168C86101E0012700BF00BF88
:1034C00000BF002084F83C0000BF384689E710B5F3
:1034D00004460CB9012010BD94F83D0028B9002025
:1034E00084F83C00204600F025F8022084F83D00D6
:1034F000211D206803F02EFE012084F8460000BF45
:1035000084F83E0001213F20015540200155412013
:10351000015500BF00BF012084F84200432001553F
:10352000442001554520015500BF012084F83D008D
:103530000020D0E77047704770B504460D4615B9B6
:1035400094F83E000BE0042D02D13F20005D06E020
:10355000082D02D14020005D01E04120005D0128DE
:1035600001D0012070BD1DB9022084F83E000EE09C
:10357000042D03D102213F20015508E0082D03D17D
:1035800002214020015502E0022141200155012283
:103590002946206803F052FE23492068884203D060
:1035A00022492068884201D1012000E0002028B192
:1035B0002068406C40F40040216848641A49206843
:1035C00088421BD02068B0F1804F17D0184920687E
:1035D000884213D01749206888420FD016492068C6
:1035E00088420BD011492068884207D013492068CF
:1035F000884203D01249206888420CD12068806834
:1036000000F00706062E0CD02068006840F001008C
:103610002168086005E02068006840F0010021682A
:10362000086000209EE70000000001400004014007
:103630000004004000080040000C00400040014031
:103640000018004010B5044606492068884201D1A0
:10365000FEF7AAFD04492068884201D105F046F929
:1036600010BD0000000C0040004001407047704752
:10367000704700002DE9F84F04462068056820686F
:10368000C668206847694FF00009CA4605F00F096F
:10369000B9F1000F0AD105F0200038B106F0200082
:1036A00020B1204603F043FFBDE8F88FB9F1000FC9
:1036B0007CD007F0010018B906F49070002875D08E
:1036C00005F0010030B106F4807018B1606C40F074
:1036D0000100606405F0040030B107F0010018B18A
:1036E000606C40F00200606405F0020030B107F049
:1036F000010018B1606C40F00400606405F008003F
:1037000048B106F0200010B907F0010018B1606C54
:1037100040F008006064606C002846D005F020008E
:1037200028B106F0200010B1204603F000FF206809
:103730004069C0F3801A606C00F0080010B9BAF15B
:10374000000F2DD0204603F0ACFE2068406900F049
:103750004000402820D100BF00BF2168143151E84B
:10376000001F21F040002168143141E80002002AC6
:10377000F3D100BFE06B50B17748E16B0865E06BB7
:10378000FDF782FE88B1E06B016D88470DE02046B1
:10379000FFF76EFF09E009E02046FFF769FF04E04C
:1037A0002046FFF765FF002060647DE7206B01285D
:1037B00078D105F01000002874D006F01000002821
:1037C000FAD000BF002000902068006800902068B8
:1037D0004068009000BF00BF2068406900F04000D2
:1037E000402860D1E06B006840681FFA80F8B8F1AB
:1037F000000F56D0A08D404553DDA4F82E80E06B1D
:10380000C069B0F5807F43D000BF00BF21680C3194
:1038100051E8001F21F4807021680C3141E800025A
:10382000002AF3D100BF00BF00BF2168143151E866
:10383000001F21F001002168143141E80002002A34
:10384000F3D100BF00BF00BF2168143151E8001F51
:1038500021F040002168143141E80002002AF3D130
:1038600000BF202084F842000020206300BF00BF7A
:1038700021680C3151E8001F21F0100021680C3143
:1038800041E80002002AF3D100BFE06BFDF7A6FD7E
:1038900002206063A08DE28D801A81B22046FFF77E
:1038A000E6FE01E742E0A08DE18D401A1FFA80F8A4
:1038B000E08DD0B3B8F1000F37D000BF00BF216852
:1038C0000C3151E8001F21F4907021680C3141E85F
:1038D0000002002AF3D100BF00BF00BF21681431ED
:1038E00051E8001F21F001002168143141E8000275
:1038F000002AF3D100BF202084F84200002020637A
:1039000000BF00BF21680C3151E8001F21F01000FA
:1039100021680C3141E80002002AF3D100BF0220E7
:10392000606341462046FFF7A2FEBDE605F0800039
:1039300030B106F0800018B1204603F08DFFB3E6E9
:1039400005F0400030B106F0400018B1204603F009
:10395000DEFDA9E600BFA7E68F74000810B5044697
:103960000CB9012010BDA06900B100E000BF94F8BF
:10397000410028B9002084F84000204600F02AF8D1
:10398000242084F841002068C06820F40050216899
:10399000C860204603F04AFE2068006920F4904089
:1039A000216808612068406920F02A002168486188
:1039B0002068C06840F400502168C860002060643E
:1039C000202084F8410084F842000020606300BF9A
:1039D000C8E7000010B586B00446142101A8FCF722
:1039E000BCFC2E492068884255D100BF00200090C1
:1039F0002B48006840F0100029490860084600681C
:103A000000F01000009000BF00BF00BF0020009039
:103A100023481438006840F0010021491439086037
:103A20000846006800F00100009000BF00BF4FF49E
:103A3000C0600190022002900020039003200490B7
:103A40000720059001A91748FDF710FF16481749F0
:103A500008604FF000604860002114488160C16038
:103A60004FF480610161002141618161C1610162A6
:103A70004162FDF73DFE08B1FDF773FB00BF0B4847
:103A8000E063846300BF002205212520FEF74EFC81
:103A90002520FEF737FC06B010BD000000100140E5
:103AA000443802400000024040640240F807002011
:103AB0007047704700BFFEE7014608684069C0F3E1
:103AC0008020B0B16FF480600A6850610020086304
:103AD000202081F83D00002081F83E00086C40F075
:103AE0000400086400BF002081F83C0000BF0120F2
:103AF00070470020FCE700002DE9F84304460F461C
:103B000015469946DDE908862068006840F4806023
:103B1000216808602068006840F4807021680860AF
:103B2000434600224FF001112046009600F037F97D
:103B300060B12068006800F48070B0F5807F02D129
:103B40004FF4007020640320BDE8F88307F0FE0006
:103B500021680861334642463E49204600F07EF91E
:103B600008B10120F0E700BF002000902068406904
:103B7000009020688069009000BF00BF3246414637
:103B8000204600F02DFA50B1206C042805D12068A1
:103B9000006840F40070216808600120D4E7B9F1A2
:103BA000010F03D1E8B22168086117E0C5F30720CF
:103BB0002168086132464146204600F011FA50B1B2
:103BC000206C042805D12068006840F4007021684A
:103BD00008600120B8E7E8B2216808613246414632
:103BE000204600F0FDF950B1206C042805D1206872
:103BF000006840F40070216808600120A4E7206894
:103C0000006840F4807021680860434600224FF04D
:103C100001112046009600F0C2F858B120680068F3
:103C200000F48070B0F5807F02D14FF40070206402
:103C3000032089E7F8B240F00100216808613346AB
:103C400042460449204600F009F908B101207BE70B
:103C5000002079E7020001002DE9F8430446884678
:103C600015469946DDE908672068006840F48070D1
:103C700021680860334600224FF00111204600976A
:103C800000F08DF860B12068006800F48070B0F535
:103C9000807F02D14FF4007020640320BDE8F883D8
:103CA00008F0FE00216808613B4632462149204663
:103CB00000F0D4F808B10120F0E700BF0020009028
:103CC00020684069009020688069009000BF00BFB4
:103CD0003A463146204600F083F950B1206C042862
:103CE00005D12068006840F4007021680860012058
:103CF000D4E7B9F1010F03D1E8B22168086117E0F8
:103D0000C5F30720216808613A463146204600F095
:103D100067F950B1206C042805D12068006840F490
:103D20000070216808600120B8E7E8B221680861E6
:103D30000020B3E70200010070B504460D461646A8
:103D400025E02046FFF7B8FE08B1012070BD681CD1
:103D5000E8B1FDF78BFE801BA84200D8BDB92068F2
:103D60004069C0F3800090B900202063202084F8CF
:103D70003D00002084F83E00206C40F020002064CC
:103D800000BF002084F83C0000BF0120DEE720686F
:103D90004069C0F380000028D3D00020D6E72DE989
:103DA000F04104460D4617461E46DDF8188038E0FF
:103DB000701CA8B3FDF75AFEA0EB0800B04200D873
:103DC00076BBC5F3074001280AD120684069A9B233
:103DD0000840A9B2884201D101200BE0002009E08F
:103DE00020688069A9B20840A9B2884201D10120A7
:103DF00000E00020B84214D100202063202084F885
:103E00003D00002084F83E00206C40F0200020643B
:103E100000BF002084F83C0000BF0120BDE8F08115
:103E2000FFE7C5F3074001280AD120684069A9B21D
:103E30000840A9B2884201D101200BE0002009E02E
:103E400020688069A9B20840A9B2884201D1012046
:103E500000E00020B842ABD00020DFE72DE9F041C0
:103E600004460D4616461F4658E020684069C0F3D8
:103E70008020E8B12068006840F400702168086084
:103E80006FF480602168486100202063202084F85E
:103E90003D00002084F83E00206C40F004002064C7
:103EA00000BF002084F83C0000BF0120BDE8F08185
:103EB000701C90B3FDF7DAFDC01BB04200D866BBA2
:103EC000C5F3074001280AD120684069A9B208401B
:103ED000A9B2884201D101200BE0002009E020684E
:103EE0008069A9B20840A9B2884201D1012000E04E
:103EF000002090B900202063202084F83D0000209D
:103F000084F83E00206C40F02000206400BF0020B8
:103F100084F83C0000BF0120C8E7FFE7C5F3074075
:103F200001280AD120684069A9B20840A9B2884294
:103F300001D101200BE0002009E020688069A9B2CE
:103F40000840A9B2884201D1012000E000200028E9
:103F50008BD00020AAE770B504460D46164637E020
:103F600020684069C0F30010A0B16FF01000216814
:103F7000486100202063202084F83D00002084F860
:103F80003E00206C206400BF002084F83C0000BF8D
:103F9000012070BDFDF76AFD801BA84200D8BDB9A5
:103FA00020684069C0F3801090B900202063202071
:103FB00084F83D00002084F83E00206C40F0200092
:103FC000206400BF002084F83C0000BF0120E0E72F
:103FD00020684069C0F380100028C1D00020D8E7D5
:103FE00070B504460D46164625E02046FFF764FDF1
:103FF00008B1012070BD681CE8B1FDF737FD801BDA
:10400000A84200D8BDB920684069C0F3C01090B97B
:1040100000202063202084F83D00002084F83E002A
:10402000206C40F02000206400BF002084F83C0099
:1040300000BF0120DEE720684069C0F3C0100028FF
:10404000D3D00020D6E7000010B5B7EE000A16481E
:1040500080ED010AB7EE000A80ED020AB7EE000A11
:1040600080ED030A9FED110A80ED040A9FED0F0A0F
:1040700080ED050A9FED0D0A80ED060A01200A4930
:1040800008709FED0B2AF7EE001A9FED0A1ADFED7C
:104090000A0AB2EE040A01F0ABFF9FED050A0748D9
:1040A00080ED100A10BD0000F04800200000000064
:1040B00096430B3C8096184B0AD7233C704800204F
:1040C00010B500216B2001F089F90721192001F0BA
:1040D00085F906211A2001F081F918211B2001F031
:1040E0007DF901211C2001F079F910BD2DED048B23
:1040F00090B0FE49D1E900028968CDE90E210D900A
:1041000000200C90F94A0C32D2E900109268CDE9F7
:104110000A020991F54A183207CA06AB07C3F34AE7
:104120002432D2E900109268CDE9040203915AE3E7
:104130000CA8FCF703FFEE4880ED000A90ED000AA2
:10414000EC4880ED000AEC4890ED000AE848D0ED1C
:10415000000A30EE200AE84880ED000A00BF02F0B5
:1041600027FE012004F0FAFF02F06EFE012004F0A9
:10417000F5FF02F0B5FE012004F0F0FF9FEDDF0B2C
:1041800053EC102BDF4890ED000B51EC100BFCF7BB
:10419000E1FA0DD29FEDDC0B53EC102BD94890EDDA
:1041A000000B51EC100BFCF7FCF9D94A03C21CE0E0
:1041B0009FEDD80B53EC102BD24890ED000B51EC37
:1041C000100BFCF776F941EC190B9FEDCF0B53EC7C
:1041D000102BFCF7E6F941EC180B9FEDD00B53ECDC
:1041E000102BFCF769F9CA4A03C29FEDC40B53ECCC
:1041F000102BCC4890ED000B51EC100BFCF7AAFAF9
:104200000DD29FEDC10B53EC102BC64890ED000B67
:1042100051EC100BFCF7C5F9C34A03C21CE09FED3B
:10422000BD0B53EC102BBF4890ED000B51EC100B65
:10423000FCF73FF941EC190B9FEDB30B53EC102B3E
:10424000FCF7AFF941EC180B9FEDB40B53EC102BBE
:10425000FCF732F9B44A03C29FEDA80B53EC102BC4
:10426000B24890ED000B51EC100BFCF773FA0DD235
:104270009FEDA50B53EC102BAC4890ED000B51ECCF
:10428000100BFCF78EF9AA4A03C214E09FEDA10BB4
:1042900053EC102BA54890ED000B51EC100BFCF7E4
:1042A00008F941EC180B9FED980B53EC102BFCF721
:1042B00078F99F4A03C29FED9F0B53EC102B9F4848
:1042C00090ED000B51EC100BFCF744FA10D29FED6F
:1042D0009C0B53EC102B994890ED000B51EC100BFC
:1042E000FCF75FF941EC180B81F00041934A03C2DF
:1042F0009FED900B53EC102B904890ED000B51EC80
:10430000100BFCF73FFA14D28C4890ED000B53ECE5
:10431000102B9FED8D0B51EC100BFCF7CAF841EC04
:10432000180B9FED870B53EC102BFCF73AF9834ADF
:1043300003C29FED800B53EC102B854890ED000BD2
:1043400051EC100BFCF706FA10D29FED7D0B53ECED
:10435000102B7F4890ED000B51EC100BFCF721F96E
:1043600041EC180B81F00041794A03C29FED710BBB
:1043700053EC102B764890ED000B51EC100BFCF732
:1043800001FA14D2724890ED000B53EC102B9FED04
:104390006E0B51EC100BFCF78CF841EC180B9FEDF9
:1043A000680B53EC102BFCF7FCF8694A03C29FED35
:1043B000610B53EC102B674890ED000B51EC100B88
:1043C000FCF7C8F910D29FED5E0B53EC102B61483F
:1043D00090ED000B51EC100BFCF7E3F841EC180BDF
:1043E00081F000415B4A03C29FED520B53EC102B4E
:1043F000584890ED000B51EC100BFCF7C3F914D2A8
:10440000544890ED000B53EC102B9FED4F0B51ECEB
:10441000100BFCF74EF841EC180B9FED490B53ECD9
:10442000102BFCF7BEF84B4A03C29FED4B0B53EC2D
:10443000102B374890ED000B51EC100BFCF73FF8B8
:1044400041EC180BFCF7B6F94549C8619FED420BEA
:1044500053EC102B344890ED000B51EC100BFCF793
:104460002EF841EC180BFCF7A5F93D4908629FEDC9
:104470003A0B53EC102B2E4890ED000B51EC100B27
:10448000FCF71DF841EC180BFCF794F9344948622D
:104490009FED340B53EC102B284890ED000B51ECA2
:1044A000100BFCF70CF841EC190B9FED300B53ECA3
:1044B000102BFCF776F841EC180BFCF77BF9284938
:1044C00008619FED280B53EC102B214890ED000B59
:1044D00051EC100BFBF7F3FF41EC190B9FED230B95
:1044E00053EC102BFCF75DF844E00000F0A5000849
:1044F00008010020EC0000200C010020000000005A
:1045000000FFDF4098000020000000000000D040C5
:10451000F0000020000000000000E8400000000063
:104520000000F03FA0000020F8000020A8000020BC
:1045300000010020000000000000E040B00000206A
:10454000000000606666304000000000E0FFEF40C1
:10455000B8000020C000002000000060B89E23408A
:104560007048002000000060B81E094000000000F4
:104570000080664041EC180BFCF71CF99A49486131
:104580001FED080B53EC102B984890ED000B51ECED
:10459000100BFBF794FF41EC190B1FED0C0B53ECC8
:1045A000102BFBF7FEFF41EC180BFCF703F98E49CB
:1045B000886101F11C0210318D4801F043FA8A48EC
:1045C00090ED091AF0EE410A90ED071AB0EE410A9B
:1045D00003F0D2FCB1EE400ADFED860A20EE200A9D
:1045E000DFED850A80EE201A7F4880ED1A1A90EDE3
:1045F000091AF0EE410A90ED081AB0EE410A03F0F4
:10460000BBFCDFED7C0A20EE200ADFED7B0A80EEAA
:10461000201A754880ED1B1A90ED093AF0EE432AF6
:1046200090ED083AB0EE432A90ED073AF0EE431AC7
:1046300090ED063AB0EE431A90ED053AF0EE430ADB
:1046400090ED043AB0EE430A6C4890ED003A01F068
:1046500013FE65496A48D0E91534026DC06D81E8E2
:104660001C00C8600A46443109A8FCF751FA5E4AAA
:1046700002F1500106A8FCF74BFA5B4A02F15C011B
:1046800003A8FCF745FA584A69460DA8FCF7BCFC9C
:10469000002039E054491C3101EB800191ED000A02
:1046A000694601EB8001D1ED000A30EE600A534902
:1046B000D1ED000A60EE200A4B4991ED100A4F49F6
:1046C00091ED001A30EE011A80EE810A4649283138
:1046D00001EB8001D1ED000A434991ED101A60EE23
:1046E000810A91ED101A4549D1ED001A31EE211AD7
:1046F000C0EE811A30EE210A3B49283101EB8001DE
:1047000081ED000A411CC8B20328C3DB364A02F11E
:104710003401A1F10C00FCF7FBF93A4890ED6A0A6C
:10472000314880ED1E0A38480068401C3649086050
:104730002D4890ED1F0A10EE101A0846FBF7F6FF01
:10474000324A03C23248008878B19FED320B53ECF5
:10475000102B2E4890ED000B51EC100BFBF7A9FE2F
:104760002A4A03C200202A49088027480068FBF72C
:1047700098FF9FED2A0B53EC102BFBF7A0FE41ECAA
:10478000180B224890ED000B53EC102B51EC180B3A
:10479000FBF792FE1D4A03C21B48006800216030EF
:1047A000894105DB0020184908600120184908806C
:1047B000144890ED690A0C4880ED1D0A114890EDEF
:1047C000680A094880ED1C0A0E4890ED6B0A0648FD
:1047D00080ED1F0A00BF13480068401C11490860A3
:1047E000012004F0BBFCA3E470480020C0000020BE
:1047F000F048002000003443DB0F4940080100204E
:10480000A04A0020A0490020E8000020E00000208D
:10481000D8000020333333D34D6270411B2FDD2489
:104820000681953F1001002010B504460020207439
:10483000A37B9A006168D4F8F400FBF775FDA27BB6
:1048400091006068FBF789FDA27B9200A37B12FBBD
:1048500003F1D4F81801FBF780FD227B9200A37BC3
:1048600012FB03F1D4F80C01FBF777FD002031E0D7
:10487000D4F8F41001EB800191ED000AB5EEC00A06
:10488000F1EE10FA24D0D4F8F41001EB800191ED90
:10489000000A227CD4F8F41001EB820181ED000AB9
:1048A000227C616A8854A16901EB800191ED000AC4
:1048B0006169095C227B237C12FB0311491ED4F839
:1048C0000C2102EB810181ED000A217C491C21743D
:1048D000411CC8B2A17B8142CADC002011E0626A9F
:1048E000125CE16901EB820191ED000A227C00FB80
:1048F0000202D4F8181101EB820181ED000A411C7B
:10490000C8B2217C8142EADC207CA4F87800217BBB
:104910007A200153207BA4F88000217C822001535F
:10492000207CA4F89000217C92200153207BA4F8E5
:104930009800217C9A200153207CA4F8480010BDE7
:104940000FB583B0DDE90310087303990598487328
:10495000039906988873002103980174039880F8DE
:104960002D100698029004F091FB03994861069877
:1049700002900398406901900299FBF7EEFC0698BB
:104980008000029004F082FB039988610698800001
:1049900002900398806901900299FBF7DEFC06986B
:1049A0008000029004F072FB0399C86106988000B1
:1049B00002900398C06901900299FBF7CEFC04981D
:1049C0008000029004F062FB039908620498800062
:1049D00002900398006A01900299FBF7BEFC0698CA
:1049E000029004F053FB03994862069802900398E2
:1049F000406A01900299FBF7B0FC04988000029095
:104A000004F044FB03990860049880000290039826
:104A1000006801900299FBF7A0FC069880000290C4
:104A200004F034FB039948600698800002900398D4
:104A3000406801900299FBF790FC05988000029075
:104A400004F024FB03998860059880000290039885
:104A5000806801900299FBF780FC04988000029026
:104A600004F014FB0399C1F8E80004988000029058
:104A70000398D0F8E80001900299FBF76EFC0398C8
:104A8000D0F8E80002900398007B019001220146D3
:104A9000DDE90230303003F001FD0498800002901F
:104AA00004F0F4FA0399C1F8EC0004988000029035
:104AB0000398D0F8EC0001900299FBF74EFC0398A4
:104AC000D0F8EC0002900398007B0190012201468F
:104AD000DDE90230383003F0E1FC0598F8B10598C3
:104AE0008000029004F0D2FA0399C1F8F000059812
:104AF000800002900398D0F8F00001900299FBF733
:104B00002CFC0398D0F8F00002900398407B0190B1
:104B100001220146DDE90230403003F0BFFC069877
:104B20008000029004F0B2FA0399C1F8F4000698EC
:104B3000800002900398D0F8F40001900299FBF7EE
:104B40000CFC0398D0F8F40002900398807B01904D
:104B500001220146DDE90230483003F09FFC049851
:104B6000800004994843029004F090FA0399C1F838
:104B7000F800049880000499484302900398D0F804
:104B8000F80001900299FBF7E8FB0398D0F8F800D1
:104B900002900398007B01900398007B00900146EF
:104BA000DDE902305030019A03F078FC049880006F
:104BB00004994843029004F069FA0399C1F8FC0093
:104BC000049880000499484302900398D0F8FC00B0
:104BD00001900299FBF7C1FB0398D0F8FC0002900A
:104BE0000398007B01900398007B00900146DDE96B
:104BF00002305830019A03F051FC04988000049967
:104C00004843029004F042FA0399C1F80001049865
:104C1000800004994843029004F038FA0399C1F8DF
:104C20000401049880000499484302900398D0F846
:104C3000000101900299FBF790FB04988000049911
:104C4000484302900398D0F8040101900299FBF7C1
:104C500084FB0398D0F8000102900398007B019038
:104C60000398007B00900146DDE902306030019A34
:104C700003F014FC0398D0F8040102900398007B21
:104C800001900398007B00900146DDE90230683016
:104C9000019A03F003FC059830B30498800005994D
:104CA0004843029004F0F2F90399C1F8080104980E
:104CB00080000599484302900398D0F808010190BC
:104CC0000299FBF74AFB0398D0F808010290039879
:104CD000407B01900398007B00900146DDE90230A3
:104CE0007030019A03F0DAFB06988000049948437B
:104CF000029004F0CBF90399C1F80C0104988000EC
:104D000006994843029004F0C1F90399C1F81001D3
:104D1000069880000499484302900398D0F80C014B
:104D200001900299FBF719FB04988000069948430B
:104D300002900398D0F8100101900299FBF70DFB47
:104D40000398D0F80C0102900398007B019003981F
:104D5000807B00900146DDE902307830019A03F053
:104D60009DFB0398D0F8100102900398807B01907E
:104D70000398007B00900146DDE902308030019A03
:104D800003F08CFB0498800004994843029004F0DF
:104D90007DF90399C1F814010498800004994843EF
:104DA00002900398D0F8140101900299FBF7D5FA0C
:104DB0000398D0F8140102900398007B01900398A7
:104DC000007B00900146DDE902308830019A03F053
:104DD00065FB0698800006994843029004F056F956
:104DE0000399C1F81801069880000699484302907B
:104DF0000398D0F8180101900299FBF7AEFA0398D6
:104E0000D0F8180102900398807B01900398807B72
:104E100000900146DDE902309030019A03F03EFB3C
:104E20000498800006994843029004F02FF90399F2
:104E3000C1F81C0104988000069948430290039829
:104E4000D0F81C0101900299FBF787FA0398D0F87B
:104E50001C0102900398807B01900398007B0090D6
:104E60000146DDE902309830019A03F017FB039800
:104E7000007B81000398007B11FB00F0029004F09E
:104E800005F90399C1F820010398007B810003987C
:104E9000007B11FB00F0029004F0F8F80399C1F8D0
:104EA00024010398007B81000398007B11FB00F034
:104EB000029004F0EBF80399C1F828010398007BF5
:104EC0008000029004F0E2F80399C1F82C010398E5
:104ED000007B8000029004F0D9F80399C1F83001FA
:104EE0000398D0F8200102900398007B019003986A
:104EF000007B00900146DDE90230A030019A03F00A
:104F0000CDFA0398D0F8240102900398007B019019
:104F10000398007B00900146DDE90230A830019A39
:104F200003F0BCFA0398D0F8280102900398007BA4
:104F300001900398007B00900146DDE90230B0301B
:104F4000019A03F0ABFA0398D0F82C010290039871
:104F5000007B019001220146DDE90230B83003F008
:104F60009DFA0398D0F8300102900398007B0190DD
:104F700001220146DDE90230C03003F08FFA002142
:104F8000039880F82810039880F82910039880F877
:104F90002A10039880F82B10039880F82C1007B083
:104FA00000BD10B50446E07B18B12046FFF73CFC7D
:104FB0000BE0A37B9A006168D4F8F400FBF7B4F926
:104FC000A27B91006068FBF7C8F9637B9A00A16837
:104FD000D4F8F000FBF7A8F910BD10B5044694F81A
:104FE0002C0068BBB4F89800A4F8A8007A20015BF4
:104FF000AA200153B4F8A800A4F8B0005A20015B1D
:10500000B220015304F1A80204F1780104F19800E0
:1050100003F080FB84F8C80004F1B00204F15801E9
:1050200004F1A80003F076FB84F8C80004F15002F4
:1050300004F1B00104F1580003F0CAFB84F8C80081
:1050400010BD10B5044694F8290068BB04F168014E
:1050500004F1600003F0D8FB84F8C80004F15802A2
:1050600004F1500104F1600003F054FB84F8C8001F
:10507000B4F85800A4F8A8006A20015BAA200153E4
:1050800004F1A80204F1680104F1580003F042FBA6
:1050900084F8C80004F1580204F1880104F1A80062
:1050A00003F0E0F984F8C80010BD10B5044694F888
:1050B0002A00002861D104F1800104F1780003F096
:1050C000A3FB84F8C800B4F87800A4F8A8005A201C
:1050D000015BAA20015304F1A80204F1580104F174
:1050E000780003F017FB84F8C800B4F8A800A4F80F
:1050F000B0008220015BB220015304F1B00204F140
:10510000800104F1A80003F005FB84F8C800B4F89E
:105110009000A4F8A0009220015BA220015304F1AA
:10512000A00204F1900104F1B00003F09BF984F8AF
:10513000C80004F1B00104F1A00003F0B3F984F851
:10514000C800B4F85800A4F8A8008220015BAA2087
:10515000015304F1A80204F1800104F1580003F0A6
:10516000D9FA84F8C80004F1980204F1B00104F1FE
:10517000A80003F0CFFA84F8C80010BD70B504464B
:105180002046FFF70EFFD4F8CC0018B12046D4F823
:10519000CC108847204600F07BF8D4F8D00018B136
:1051A0002046D4F8D01088472046FFF74AFFD4F8AD
:1051B000D40018B12046D4F8D4108847207C08B910
:1051C000E07BB8B92046FFF770FFD4F8D80018B1DB
:1051D0002046D4F8D8108847204600F097F8D4F835
:1051E000DC0018B12046D4F8DC1088472046FFF7D1
:1051F000F4FE0EE0237B9A00D4E93A01FBF794F821
:10520000237B9B00257B13FB05F2D4E93E01FBF7D2
:105210008BF8D4F8E00018B12046D4F8E0108847A5
:10522000002022E0227B00FB0202D4F8F81001EB00
:10523000820191ED000A216A01EB8001D1ED000AA3
:10524000B4EEE00AF1EE10FA0DD2216A01EB800112
:1052500091ED000A227B00FB0202D4F8F81001EB6A
:10526000820181ED000A411CC8B2217B8142D9DC58
:10527000237B9A00D4F8E8102068FBF755F8D4F89F
:10528000E40018B12046D4F8E4108847206870BDC7
:1052900010B5044694F8280060BB607B00282ADD26
:1052A000207BA4F8B8000121BA20015304F1B80210
:1052B00004F1300104F1600003F02CFA84F8C80016
:1052C000207BA4F8C0000121C220015304F1C002D8
:1052D00004F1400104F1700003F01CFA84F8C800E6
:1052E00004F1380204F1C00104F1B80003F0BAF887
:1052F00084F8C80009E004F1380204F1300104F137
:10530000600003F007FA84F8C80010BD10B5044629
:1053100094F82B00E0BBB4F87800A4F8B8000121A1
:10532000BA20015304F1B80204F1380104F1780005
:1053300003F0F0F984F8C800B4F84800A4F8C000FD
:105340000121C220015304F1C00204F1B80104F1AB
:10535000480003F03DFA84F8C800B4F89800A4F8B7
:10536000B8000121BA20015304F1B80204F1C001D0
:1053700004F1980003F0CEF984F8C80004F130027B
:1053800004F1B80104F1380003F06CF884F8C800A7
:1053900010BD0000FEB504460D461646052001234B
:1053A00022461821CDE9005602900248FCF74CFC39
:1053B000FEBD000058050020FEB504460D46164609
:1053C000052001232246D021CDE900560290024853
:1053D000FCF73AFCFEBD00005805002013B584B070
:1053E00004460520012105AA0B46CDE900210290C3
:1053F0002246D0210248FCF7ABFD06B010BD0000EC
:10540000580500201FB500200090019002900390E5
:105410001548164908604FF4803048600021134851
:1054200081600161017680F82010C16210498162BB
:105430000021C1600121C161002180F830100121EB
:105440004161FBF757FF08B1FBF78BFE002000908E
:10545000012001900020029069460448FBF784FE79
:1054600008B1FBF77EFE1FBD0020014010050020A3
:105470000100000F08B500BF002000900A48006836
:1054800040F48000084908600846006800F4800085
:10549000009000BF00BF002205213A20FCF746FF24
:1054A0003A20FCF72FFF08BD3038024000B595B018
:1054B0001C2212490EA8FAF737FF00210EA803F0AC
:1054C0005EFE0F4908601C220C491C3107A8FAF740
:1054D0002BFF002107A803F052FE0A4908601C2296
:1054E000064938316846FAF71FFF0021684603F085
:1054F00046FE0549086015B000BD00007CA5000807
:1055000000000020040000200800002000B587B043
:10551000142102A8FAF721FF00BF0020019044489F
:10552000006840F02000424908600846006800F02A
:105530002000019000BF00BF00BF0020019008467E
:10554000006840F0800008600846006800F08000B5
:10555000019000BF00BF00BF002001900846006816
:1055600040F0010008600846006800F0010001906A
:1055700000BF00BF00BF002001900846006840F057
:10558000100008600846006800F01000019000BF9D
:1055900000BF00BF002001900846006840F00200F4
:1055A00008600846006800F00200019000BF00BFDC
:1055B00000BF002001900846006840F00800086025
:1055C0000846006800F00800019000BF00BF00BF5F
:1055D000002001900846006840F00400086008467A
:1055E000006800F00400019000BF00BF0022FF210E
:1055F0001048FCF735FA002210210F48FCF730FA6A
:10560000FF2002900120039000200490059002A941
:105610000848FCF72BF91020029001200390049019
:105620000020059002A90448FCF720F907B000BD4E
:105630003038024000140240000C024010B50B4804
:105640000B4908600B484860002109488160C1602F
:105650004FF480410161002141618161C1610162BA
:10566000FCF70AFA08B1FBF77CFD10BD00540040BE
:1056700058050020A086010010B50B480B490860B2
:105680000B484860002109488160C1604FF48041A7
:105690000161002141618161C1610162FCF7ECF9A6
:1056A00008B1FBF75EFD10BD00580040AC050020BE
:1056B000A086010000B58BB0242102A8FAF74DFEA8
:1056C00000200090019018481849086000204860A8
:1056D0000021164881604FF6FF71C1600021016111
:1056E0004161816103200290002003900120049019
:1056F0000020059006900790012008900020099056
:105700000A9002A90948FDF7B7FB08B1FBF729FD8C
:1057100000200090019069460448FDF70BFA08B19B
:10572000FBF71FFD0BB000BD00000140000600208C
:1057300000B58DB0002009900A900B900C90079056
:1057400008901C216846FAF708FE4FF080402B496C
:1057500008600920486000212848816040F2E73154
:10576000C160002101618161FDF73EFA08B1FBF7DC
:10577000F8FC4FF48050099009A92048FDF7F6FA8B
:1057800008B1FBF7EEFC1D48FDF7A1FE08B1FBF7E1
:10579000E8FC00200790089007A91848FDF7CAF90F
:1057A00008B1FBF7DEFC6020009000200190029021
:1057B0000490002269461148FDF707FE08B1FBF787
:1057C000D0FC042269460D48FDF7FFFD08B1FBF748
:1057D000C8FC082269460948FDF7F7FD08B1FBF748
:1057E000C0FC0C2269460548FDF7EFFD08B1FBF748
:1057F000B8FC0248FDF7BAFD0DB000BD4806002018
:1058000000B58BB0242102A8FAF7A7FD0020009074
:105810000190184818490860002048600021164887
:1058200081604FF6FF71C160002101618161032039
:105830000290002003900120049000200590069023
:10584000079001200890002009900A9002A90A48B8
:10585000FDF712FB08B1FBF784FC002000900190DB
:1058600069460548FDF766F908B1FBF77AFC0BB00D
:1058700000BD0000000400409006002000B58BB081
:10588000242102A8FAF769FD002000900190184831
:1058900018490860002048600021164881604FF6D2
:1058A000FF71C1600021016181610320029000202D
:1058B000039001200490002005900690079001209D
:1058C0000890002009900A9002A90A48FDF7D4FA2E
:1058D00008B1FBF746FC002000900190694605489E
:1058E000FDF728F908B1FBF73CFC0BB000BD000048
:1058F00000080040D806002000B58BB0242102A883
:10590000FAF72BFD00200090019019481949086012
:10591000002048600021174881604FF6FF71C16088
:105920000021016141618161032002900020039008
:10593000012004900020059006900220079001208D
:105940000890002009900A9002A90A48FDF794FAED
:1059500008B1FBF706FC002000900190694605485D
:10596000FDF7E8F808B1FBF7FCFB0BB000BD000049
:1059700000040140200700201FB500200090019086
:10598000029003900E480F49086063204860002190
:105990000C48816040F2E731C16000210161816102
:1059A000FDF722F908B1FBF7DCFB4FF480500090C3
:1059B00069460448FDF7DAF908B1FBF7D2FB1FBDD1
:1059C000004001406807002010B50B480B490860F3
:1059D0004FF4E1304860002108488160C1600161F6
:1059E0000C21416100218161C161FDF7B7FF08B160
:1059F000FBF7B7FB10BD000000100140B00700200E
:105A0000F0EE400AF6EE001A60EEA11AB0EE611A4E
:105A1000B0EE600A10EE100A0749A1EB600000EE3C
:105A2000100A21EE002AF7EE081A42EE401A61EE43
:105A3000801AB0EE610A7047DF59375F00BFFEE79A
:105A400000BFFEE770B52DED088B86B004460D460D
:105A5000164694ED040ACA48D0ED000A30EE600AFA
:105A6000B0EEC00ADFEDC70AB4EEE00AF1EE10FABC
:105A700022DC94ED050AC448D0ED000A30EE600A3D
:105A8000B0EEC00ADFEDBF0AB4EEE00AF1EE10FAA4
:105A900012DC94ED060ABD48D0ED000A30EE600A33
:105AA000B0EEC00ADFEDB70AB4EEE00AF1EE10FA8C
:105AB00002DC207800287DD094ED040ADFEDB40AE2
:105AC00080EE201AB0EE41BAB0EE4B0A02F078FC3C
:105AD000F0EE408A94ED050ADFEDAD0A80EE201A63
